{
  "contractName": "ProductLedger",
  "abi": [
    {
      "inputs": [
        {
          "internalType": "address",
          "name": "_userRegistryAddress",
          "type": "address"
        }
      ],
      "stateMutability": "nonpayable",
      "type": "constructor"
    },
    {
      "anonymous": false,
      "inputs": [
        {
          "indexed": true,
          "internalType": "uint256",
          "name": "id",
          "type": "uint256"
        }
      ],
      "name": "ProductHarvested",
      "type": "event"
    },
    {
      "anonymous": false,
      "inputs": [
        {
          "indexed": true,
          "internalType": "uint256",
          "name": "id",
          "type": "uint256"
        },
        {
          "indexed": false,
          "internalType": "string",
          "name": "name",
          "type": "string"
        },
        {
          "indexed": true,
          "internalType": "address",
          "name": "farmer",
          "type": "address"
        }
      ],
      "name": "ProductSown",
      "type": "event"
    },
    {
      "anonymous": false,
      "inputs": [
        {
          "indexed": true,
          "internalType": "uint256",
          "name": "id",
          "type": "uint256"
        },
        {
          "indexed": true,
          "internalType": "address",
          "name": "verifier",
          "type": "address"
        }
      ],
      "name": "ProductVerified",
      "type": "event"
    },
    {
      "anonymous": false,
      "inputs": [
        {
          "indexed": true,
          "internalType": "uint256",
          "name": "id",
          "type": "uint256"
        },
        {
          "indexed": false,
          "internalType": "enum ProductLedger.ProductStage",
          "name": "newStage",
          "type": "uint8"
        },
        {
          "indexed": true,
          "internalType": "address",
          "name": "newOwner",
          "type": "address"
        },
        {
          "indexed": false,
          "internalType": "uint256",
          "name": "price",
          "type": "uint256"
        }
      ],
      "name": "StageUpdated",
      "type": "event"
    },
    {
      "anonymous": false,
      "inputs": [
        {
          "indexed": true,
          "internalType": "uint256",
          "name": "id",
          "type": "uint256"
        },
        {
          "indexed": true,
          "internalType": "address",
          "name": "newOwner",
          "type": "address"
        }
      ],
      "name": "TransferConfirmed",
      "type": "event"
    },
    {
      "anonymous": false,
      "inputs": [
        {
          "indexed": true,
          "internalType": "uint256",
          "name": "id",
          "type": "uint256"
        },
        {
          "indexed": true,
          "internalType": "address",
          "name": "from",
          "type": "address"
        },
        {
          "indexed": true,
          "internalType": "address",
          "name": "to",
          "type": "address"
        },
        {
          "indexed": false,
          "internalType": "uint256",
          "name": "price",
          "type": "uint256"
        }
      ],
      "name": "TransferInitiated",
      "type": "event"
    },
    {
      "inputs": [
        {
          "internalType": "uint256",
          "name": "",
          "type": "uint256"
        },
        {
          "internalType": "address",
          "name": "",
          "type": "address"
        }
      ],
      "name": "hasVerified",
      "outputs": [
        {
          "internalType": "bool",
          "name": "",
          "type": "bool"
        }
      ],
      "stateMutability": "view",
      "type": "function"
    },
    {
      "inputs": [
        {
          "internalType": "uint256",
          "name": "",
          "type": "uint256"
        },
        {
          "internalType": "uint256",
          "name": "",
          "type": "uint256"
        }
      ],
      "name": "history",
      "outputs": [
        {
          "internalType": "enum ProductLedger.ProductStage",
          "name": "stage",
          "type": "uint8"
        },
        {
          "internalType": "address",
          "name": "actor",
          "type": "address"
        },
        {
          "internalType": "uint256",
          "name": "timestamp",
          "type": "uint256"
        },
        {
          "internalType": "uint256",
          "name": "price",
          "type": "uint256"
        }
      ],
      "stateMutability": "view",
      "type": "function"
    },
    {
      "inputs": [
        {
          "internalType": "uint256",
          "name": "",
          "type": "uint256"
        }
      ],
      "name": "productCores",
      "outputs": [
        {
          "internalType": "uint256",
          "name": "id",
          "type": "uint256"
        },
        {
          "internalType": "address",
          "name": "farmer",
          "type": "address"
        },
        {
          "internalType": "uint256",
          "name": "sowingDate",
          "type": "uint256"
        },
        {
          "internalType": "uint256",
          "name": "harvestDate",
          "type": "uint256"
        },
        {
          "internalType": "uint256",
          "name": "quantity",
          "type": "uint256"
        },
        {
          "internalType": "enum ProductLedger.FarmingPractice",
          "name": "practice",
          "type": "uint8"
        },
        {
          "internalType": "bool",
          "name": "isVerified",
          "type": "bool"
        },
        {
          "internalType": "enum ProductLedger.ProductStage",
          "name": "stage",
          "type": "uint8"
        },
        {
          "internalType": "address",
          "name": "currentOwner",
          "type": "address"
        },
        {
          "internalType": "address",
          "name": "designatedVendor",
          "type": "address"
        },
        {
          "internalType": "uint256",
          "name": "farmerSalePrice",
          "type": "uint256"
        },
        {
          "internalType": "uint256",
          "name": "vendorSalePrice",
          "type": "uint256"
        }
      ],
      "stateMutability": "view",
      "type": "function"
    },
    {
      "inputs": [],
      "name": "productCounter",
      "outputs": [
        {
          "internalType": "uint256",
          "name": "",
          "type": "uint256"
        }
      ],
      "stateMutability": "view",
      "type": "function"
    },
    {
      "inputs": [
        {
          "internalType": "address",
          "name": "",
          "type": "address"
        },
        {
          "internalType": "uint256",
          "name": "",
          "type": "uint256"
        }
      ],
      "name": "productIdsByFarmer",
      "outputs": [
        {
          "internalType": "uint256",
          "name": "",
          "type": "uint256"
        }
      ],
      "stateMutability": "view",
      "type": "function"
    },
    {
      "inputs": [
        {
          "internalType": "uint256",
          "name": "",
          "type": "uint256"
        }
      ],
      "name": "productMetadata",
      "outputs": [
        {
          "internalType": "string",
          "name": "name",
          "type": "string"
        },
        {
          "internalType": "string",
          "name": "unit",
          "type": "string"
        },
        {
          "internalType": "string",
          "name": "location",
          "type": "string"
        }
      ],
      "stateMutability": "view",
      "type": "function"
    },
    {
      "inputs": [],
      "name": "requiredVerifications",
      "outputs": [
        {
          "internalType": "uint256",
          "name": "",
          "type": "uint256"
        }
      ],
      "stateMutability": "view",
      "type": "function"
    },
    {
      "inputs": [],
      "name": "userRegistry",
      "outputs": [
        {
          "internalType": "contract UserRegistry",
          "name": "",
          "type": "address"
        }
      ],
      "stateMutability": "view",
      "type": "function"
    },
    {
      "inputs": [
        {
          "internalType": "uint256",
          "name": "",
          "type": "uint256"
        }
      ],
      "name": "verificationCount",
      "outputs": [
        {
          "internalType": "uint256",
          "name": "",
          "type": "uint256"
        }
      ],
      "stateMutability": "view",
      "type": "function"
    },
    {
      "inputs": [
        {
          "internalType": "address",
          "name": "",
          "type": "address"
        },
        {
          "internalType": "uint256",
          "name": "",
          "type": "uint256"
        }
      ],
      "name": "verifiedProducts",
      "outputs": [
        {
          "internalType": "uint256",
          "name": "",
          "type": "uint256"
        }
      ],
      "stateMutability": "view",
      "type": "function"
    },
    {
      "inputs": [
        {
          "internalType": "string",
          "name": "_name",
          "type": "string"
        },
        {
          "internalType": "enum ProductLedger.FarmingPractice",
          "name": "_practice",
          "type": "uint8"
        },
        {
          "internalType": "string",
          "name": "_location",
          "type": "string"
        },
        {
          "internalType": "uint256",
          "name": "_quantity",
          "type": "uint256"
        },
        {
          "internalType": "string",
          "name": "_unit",
          "type": "string"
        }
      ],
      "name": "addSownProduct",
      "outputs": [],
      "stateMutability": "nonpayable",
      "type": "function"
    },
    {
      "inputs": [
        {
          "internalType": "uint256",
          "name": "_id",
          "type": "uint256"
        }
      ],
      "name": "updateToHarvested",
      "outputs": [],
      "stateMutability": "nonpayable",
      "type": "function"
    },
    {
      "inputs": [
        {
          "internalType": "uint256",
          "name": "_id",
          "type": "uint256"
        },
        {
          "internalType": "address",
          "name": "_vendorAddress",
          "type": "address"
        },
        {
          "internalType": "uint256",
          "name": "_price",
          "type": "uint256"
        }
      ],
      "name": "transferProductToVendor",
      "outputs": [],
      "stateMutability": "nonpayable",
      "type": "function"
    },
    {
      "inputs": [
        {
          "internalType": "uint256",
          "name": "_id",
          "type": "uint256"
        }
      ],
      "name": "confirmReceipt",
      "outputs": [],
      "stateMutability": "nonpayable",
      "type": "function"
    },
    {
      "inputs": [
        {
          "internalType": "uint256",
          "name": "_id",
          "type": "uint256"
        },
        {
          "internalType": "uint256",
          "name": "_price",
          "type": "uint256"
        }
      ],
      "name": "updateStageToSold",
      "outputs": [],
      "stateMutability": "nonpayable",
      "type": "function"
    },
    {
      "inputs": [
        {
          "internalType": "uint256",
          "name": "_id",
          "type": "uint256"
        }
      ],
      "name": "verifyProduct",
      "outputs": [],
      "stateMutability": "nonpayable",
      "type": "function"
    },
    {
      "inputs": [
        {
          "internalType": "uint256",
          "name": "_id",
          "type": "uint256"
        }
      ],
      "name": "getProductCore",
      "outputs": [
        {
          "components": [
            {
              "internalType": "uint256",
              "name": "id",
              "type": "uint256"
            },
            {
              "internalType": "address",
              "name": "farmer",
              "type": "address"
            },
            {
              "internalType": "uint256",
              "name": "sowingDate",
              "type": "uint256"
            },
            {
              "internalType": "uint256",
              "name": "harvestDate",
              "type": "uint256"
            },
            {
              "internalType": "uint256",
              "name": "quantity",
              "type": "uint256"
            },
            {
              "internalType": "enum ProductLedger.FarmingPractice",
              "name": "practice",
              "type": "uint8"
            },
            {
              "internalType": "bool",
              "name": "isVerified",
              "type": "bool"
            },
            {
              "internalType": "enum ProductLedger.ProductStage",
              "name": "stage",
              "type": "uint8"
            },
            {
              "internalType": "address",
              "name": "currentOwner",
              "type": "address"
            },
            {
              "internalType": "address",
              "name": "designatedVendor",
              "type": "address"
            },
            {
              "internalType": "uint256",
              "name": "farmerSalePrice",
              "type": "uint256"
            },
            {
              "internalType": "uint256",
              "name": "vendorSalePrice",
              "type": "uint256"
            }
          ],
          "internalType": "struct ProductLedger.ProductCore",
          "name": "",
          "type": "tuple"
        }
      ],
      "stateMutability": "view",
      "type": "function"
    },
    {
      "inputs": [
        {
          "internalType": "uint256",
          "name": "_id",
          "type": "uint256"
        }
      ],
      "name": "getProductMetadata",
      "outputs": [
        {
          "components": [
            {
              "internalType": "string",
              "name": "name",
              "type": "string"
            },
            {
              "internalType": "string",
              "name": "unit",
              "type": "string"
            },
            {
              "internalType": "string",
              "name": "location",
              "type": "string"
            }
          ],
          "internalType": "struct ProductLedger.ProductMetadata",
          "name": "",
          "type": "tuple"
        }
      ],
      "stateMutability": "view",
      "type": "function"
    },
    {
      "inputs": [
        {
          "internalType": "uint256",
          "name": "_id",
          "type": "uint256"
        }
      ],
      "name": "getProductDetails",
      "outputs": [
        {
          "components": [
            {
              "internalType": "uint256",
              "name": "id",
              "type": "uint256"
            },
            {
              "internalType": "address",
              "name": "farmer",
              "type": "address"
            },
            {
              "internalType": "uint256",
              "name": "sowingDate",
              "type": "uint256"
            },
            {
              "internalType": "uint256",
              "name": "harvestDate",
              "type": "uint256"
            },
            {
              "internalType": "uint256",
              "name": "quantity",
              "type": "uint256"
            },
            {
              "internalType": "enum ProductLedger.FarmingPractice",
              "name": "practice",
              "type": "uint8"
            },
            {
              "internalType": "bool",
              "name": "isVerified",
              "type": "bool"
            },
            {
              "internalType": "enum ProductLedger.ProductStage",
              "name": "stage",
              "type": "uint8"
            },
            {
              "internalType": "address",
              "name": "currentOwner",
              "type": "address"
            },
            {
              "internalType": "address",
              "name": "designatedVendor",
              "type": "address"
            },
            {
              "internalType": "uint256",
              "name": "farmerSalePrice",
              "type": "uint256"
            },
            {
              "internalType": "uint256",
              "name": "vendorSalePrice",
              "type": "uint256"
            }
          ],
          "internalType": "struct ProductLedger.ProductCore",
          "name": "",
          "type": "tuple"
        },
        {
          "components": [
            {
              "internalType": "string",
              "name": "name",
              "type": "string"
            },
            {
              "internalType": "string",
              "name": "unit",
              "type": "string"
            },
            {
              "internalType": "string",
              "name": "location",
              "type": "string"
            }
          ],
          "internalType": "struct ProductLedger.ProductMetadata",
          "name": "",
          "type": "tuple"
        }
      ],
      "stateMutability": "view",
      "type": "function"
    },
    {
      "inputs": [
        {
          "internalType": "uint256",
          "name": "_id",
          "type": "uint256"
        }
      ],
      "name": "getProductHistory",
      "outputs": [
        {
          "components": [
            {
              "internalType": "enum ProductLedger.ProductStage",
              "name": "stage",
              "type": "uint8"
            },
            {
              "internalType": "address",
              "name": "actor",
              "type": "address"
            },
            {
              "internalType": "uint256",
              "name": "timestamp",
              "type": "uint256"
            },
            {
              "internalType": "uint256",
              "name": "price",
              "type": "uint256"
            }
          ],
          "internalType": "struct ProductLedger.TraceEvent[]",
          "name": "",
          "type": "tuple[]"
        }
      ],
      "stateMutability": "view",
      "type": "function"
    },
    {
      "inputs": [
        {
          "internalType": "address",
          "name": "_farmer",
          "type": "address"
        }
      ],
      "name": "getProductIdsByFarmer",
      "outputs": [
        {
          "internalType": "uint256[]",
          "name": "",
          "type": "uint256[]"
        }
      ],
      "stateMutability": "view",
      "type": "function"
    },
    {
      "inputs": [
        {
          "internalType": "uint256[]",
          "name": "_ids",
          "type": "uint256[]"
        }
      ],
      "name": "getProductsByIds",
      "outputs": [
        {
          "components": [
            {
              "internalType": "uint256",
              "name": "id",
              "type": "uint256"
            },
            {
              "internalType": "address",
              "name": "farmer",
              "type": "address"
            },
            {
              "internalType": "uint256",
              "name": "sowingDate",
              "type": "uint256"
            },
            {
              "internalType": "uint256",
              "name": "harvestDate",
              "type": "uint256"
            },
            {
              "internalType": "uint256",
              "name": "quantity",
              "type": "uint256"
            },
            {
              "internalType": "enum ProductLedger.FarmingPractice",
              "name": "practice",
              "type": "uint8"
            },
            {
              "internalType": "bool",
              "name": "isVerified",
              "type": "bool"
            },
            {
              "internalType": "enum ProductLedger.ProductStage",
              "name": "stage",
              "type": "uint8"
            },
            {
              "internalType": "address",
              "name": "currentOwner",
              "type": "address"
            },
            {
              "internalType": "address",
              "name": "designatedVendor",
              "type": "address"
            },
            {
              "internalType": "uint256",
              "name": "farmerSalePrice",
              "type": "uint256"
            },
            {
              "internalType": "uint256",
              "name": "vendorSalePrice",
              "type": "uint256"
            }
          ],
          "internalType": "struct ProductLedger.ProductCore[]",
          "name": "",
          "type": "tuple[]"
        },
        {
          "components": [
            {
              "internalType": "string",
              "name": "name",
              "type": "string"
            },
            {
              "internalType": "string",
              "name": "unit",
              "type": "string"
            },
            {
              "internalType": "string",
              "name": "location",
              "type": "string"
            }
          ],
          "internalType": "struct ProductLedger.ProductMetadata[]",
          "name": "",
          "type": "tuple[]"
        }
      ],
      "stateMutability": "view",
      "type": "function"
    },
    {
      "inputs": [],
      "name": "getAllProductsForVerifier",
      "outputs": [
        {
          "components": [
            {
              "internalType": "uint256",
              "name": "id",
              "type": "uint256"
            },
            {
              "internalType": "address",
              "name": "farmer",
              "type": "address"
            },
            {
              "internalType": "uint256",
              "name": "sowingDate",
              "type": "uint256"
            },
            {
              "internalType": "uint256",
              "name": "harvestDate",
              "type": "uint256"
            },
            {
              "internalType": "uint256",
              "name": "quantity",
              "type": "uint256"
            },
            {
              "internalType": "enum ProductLedger.FarmingPractice",
              "name": "practice",
              "type": "uint8"
            },
            {
              "internalType": "bool",
              "name": "isVerified",
              "type": "bool"
            },
            {
              "internalType": "enum ProductLedger.ProductStage",
              "name": "stage",
              "type": "uint8"
            },
            {
              "internalType": "address",
              "name": "currentOwner",
              "type": "address"
            },
            {
              "internalType": "address",
              "name": "designatedVendor",
              "type": "address"
            },
            {
              "internalType": "uint256",
              "name": "farmerSalePrice",
              "type": "uint256"
            },
            {
              "internalType": "uint256",
              "name": "vendorSalePrice",
              "type": "uint256"
            }
          ],
          "internalType": "struct ProductLedger.ProductCore[]",
          "name": "cores_",
          "type": "tuple[]"
        },
        {
          "components": [
            {
              "internalType": "string",
              "name": "name",
              "type": "string"
            },
            {
              "internalType": "string",
              "name": "unit",
              "type": "string"
            },
            {
              "internalType": "string",
              "name": "location",
              "type": "string"
            }
          ],
          "internalType": "struct ProductLedger.ProductMetadata[]",
          "name": "metadata_",
          "type": "tuple[]"
        },
        {
          "internalType": "uint256[]",
          "name": "verificationCounts_",
          "type": "uint256[]"
        },
        {
          "internalType": "bool[]",
          "name": "userHasVerified_",
          "type": "bool[]"
        }
      ],
      "stateMutability": "view",
      "type": "function"
    },
    {
      "inputs": [],
      "name": "getAllProducts",
      "outputs": [
        {
          "components": [
            {
              "internalType": "uint256",
              "name": "id",
              "type": "uint256"
            },
            {
              "internalType": "address",
              "name": "farmer",
              "type": "address"
            },
            {
              "internalType": "uint256",
              "name": "sowingDate",
              "type": "uint256"
            },
            {
              "internalType": "uint256",
              "name": "harvestDate",
              "type": "uint256"
            },
            {
              "internalType": "uint256",
              "name": "quantity",
              "type": "uint256"
            },
            {
              "internalType": "enum ProductLedger.FarmingPractice",
              "name": "practice",
              "type": "uint8"
            },
            {
              "internalType": "bool",
              "name": "isVerified",
              "type": "bool"
            },
            {
              "internalType": "enum ProductLedger.ProductStage",
              "name": "stage",
              "type": "uint8"
            },
            {
              "internalType": "address",
              "name": "currentOwner",
              "type": "address"
            },
            {
              "internalType": "address",
              "name": "designatedVendor",
              "type": "address"
            },
            {
              "internalType": "uint256",
              "name": "farmerSalePrice",
              "type": "uint256"
            },
            {
              "internalType": "uint256",
              "name": "vendorSalePrice",
              "type": "uint256"
            }
          ],
          "internalType": "struct ProductLedger.ProductCore[]",
          "name": "",
          "type": "tuple[]"
        },
        {
          "components": [
            {
              "internalType": "string",
              "name": "name",
              "type": "string"
            },
            {
              "internalType": "string",
              "name": "unit",
              "type": "string"
            },
            {
              "internalType": "string",
              "name": "location",
              "type": "string"
            }
          ],
          "internalType": "struct ProductLedger.ProductMetadata[]",
          "name": "",
          "type": "tuple[]"
        }
      ],
      "stateMutability": "view",
      "type": "function"
    }
  ],
  "bytecode": "0x60806040523480156200001157600080fd5b5060405162005d5138038062005d5183398181016040528101906200003791906200009d565b806000806101000a81548173ffffffffffffffffffffffffffffffffffffffff021916908373ffffffffffffffffffffffffffffffffffffffff16021790555060036007819055505062000117565b6000815190506200009781620000fd565b92915050565b600060208284031215620000b057600080fd5b6000620000c08482850162000086565b91505092915050565b6000620000d682620000dd565b9050919050565b600073ffffffffffffffffffffffffffffffffffffffff82169050919050565b6200010881620000c9565b81146200011457600080fd5b50565b615c2a80620001276000396000f3fe608060405234801561001057600080fd5b50600436106101575760003560e01c80635c7460d6116100c3578063843cba131161007c578063843cba13146104275780638b27844e1461044357806398b45e9d1461045f5780639d26bd1c1461048f578063b9e6e29d146104bf578063bd0f8f6a146104ef57610157565b80635c7460d61461033d57806362014ef81461035b5780636813b53b1461037757806368d33368146103a85780636f2ed084146103c457806371d9e19e146103f457610157565b80634814f50b116101155780634814f50b146102435780635139a2c41461025f578063524e84621461028f57806353845509146102ab57806356563e4a146102dd57806357a096a11461030d57610157565b806263051b1461015c57806302ee3a521461017d5780630d605e531461019c5780630e1b8db4146101d757806315f3b3db146101f55780631f16653b14610225575b600080fd5b610164610520565b604051610174949392919061522a565b60405180910390f35b610185610d44565b6040516101939291906151f3565b60405180910390f35b6101b660048036038101906101b19190614628565b611370565b6040516101ce9c9b9a9998979695949392919061560c565b60405180910390f35b6101df611457565b6040516101ec91906155f1565b60405180910390f35b61020f600480360381019061020a9190614482565b61145d565b60405161021c91906152ad565b60405180910390f35b61022d6114f4565b60405161023a91906155f1565b60405180910390f35b61025d60048036038101906102589190614628565b6114fa565b005b61027960048036038101906102749190614628565b611701565b6040516102869190615581565b60405180910390f35b6102a960048036038101906102a49190614628565b611996565b005b6102c560048036038101906102c09190614628565b611cbc565b6040516102d493929190615395565b60405180910390f35b6102f760048036038101906102f29190614651565b611e7e565b60405161030491906152cf565b60405180910390f35b61032760048036038101906103229190614628565b611ead565b604051610334919061528b565b60405180910390f35b610345612010565b60405161035291906152ea565b60405180910390f35b61037560048036038101906103709190614528565b612034565b005b610391600480360381019061038c9190614628565b61260f565b60405161039f92919061559d565b60405180910390f35b6103c260048036038101906103bd919061468d565b612a88565b005b6103de60048036038101906103d99190614628565b612f98565b6040516103eb91906155f1565b60405180910390f35b61040e600480360381019061040991906146dc565b612fb0565b60405161041e9493929190615305565b60405180910390f35b610441600480360381019061043c9190614628565b61302a565b005b61045d600480360381019061045891906146dc565b6132c6565b005b610479600480360381019061047491906144ab565b6135d8565b60405161048691906155f1565b60405180910390f35b6104a960048036038101906104a49190614628565b613609565b6040516104b691906155cf565b60405180910390f35b6104d960048036038101906104d491906144ab565b6137ec565b6040516104e691906155f1565b60405180910390f35b610509600480360381019061050491906144e7565b61381d565b6040516105179291906151f3565b60405180910390f35b606080606080600060015490508067ffffffffffffffff81111561056d577f4e487b7100000000000000000000000000000000000000000000000000000000600052604160045260246000fd5b6040519080825280602002602001820160405280156105a657816020015b610593614010565b81526020019060019003908161058b5790505b5094508067ffffffffffffffff8111156105e9577f4e487b7100000000000000000000000000000000000000000000000000000000600052604160045260246000fd5b60405190808252806020026020018201604052801561062257816020015b61060f614125565b8152602001906001900390816106075790505b5093508067ffffffffffffffff811115610665577f4e487b7100000000000000000000000000000000000000000000000000000000600052604160045260246000fd5b6040519080825280602002602001820160405280156106935781602001602082028036833780820191505090505b5092508067ffffffffffffffff8111156106d6577f4e487b7100000000000000000000000000000000000000000000000000000000600052604160045260246000fd5b6040519080825280602002602001820160405280156107045781602001602082028036833780820191505090505b5091506000600190505b818111610d3c576002600082815260200190815260200160002060405180610180016040529081600082015481526020016001820160009054906101000a900473ffffffffffffffffffffffffffffffffffffffff1673ffffffffffffffffffffffffffffffffffffffff1673ffffffffffffffffffffffffffffffffffffffff1681526020016002820154815260200160038201548152602001600482015481526020016005820160009054906101000a900460ff1660018111156107fd577f4e487b7100000000000000000000000000000000000000000000000000000000600052602160045260246000fd5b6001811115610835577f4e487b7100000000000000000000000000000000000000000000000000000000600052602160045260246000fd5b81526020016005820160019054906101000a900460ff161515151581526020016005820160029054906101000a900460ff16600481111561089f577f4e487b7100000000000000000000000000000000000000000000000000000000600052602160045260246000fd5b60048111156108d7577f4e487b7100000000000000000000000000000000000000000000000000000000600052602160045260246000fd5b81526020016005820160039054906101000a900473ffffffffffffffffffffffffffffffffffffffff1673ffffffffffffffffffffffffffffffffffffffff1673ffffffffffffffffffffffffffffffffffffffff1681526020016006820160009054906101000a900473ffffffffffffffffffffffffffffffffffffffff1673ffffffffffffffffffffffffffffffffffffffff1673ffffffffffffffffffffffffffffffffffffffff16815260200160078201548152602001600882015481525050866001836109a991906158f3565b815181106109e0577f4e487b7100000000000000000000000000000000000000000000000000000000600052603260045260246000fd5b602002602001018190525060036000828152602001908152602001600020604051806060016040529081600082018054610a1990615a1f565b80601f0160208091040260200160405190810160405280929190818152602001828054610a4590615a1f565b8015610a925780601f10610a6757610100808354040283529160200191610a92565b820191906000526020600020905b815481529060010190602001808311610a7557829003601f168201915b50505050508152602001600182018054610aab90615a1f565b80601f0160208091040260200160405190810160405280929190818152602001828054610ad790615a1f565b8015610b245780601f10610af957610100808354040283529160200191610b24565b820191906000526020600020905b815481529060010190602001808311610b0757829003601f168201915b50505050508152602001600282018054610b3d90615a1f565b80601f0160208091040260200160405190810160405280929190818152602001828054610b6990615a1f565b8015610bb65780601f10610b8b57610100808354040283529160200191610bb6565b820191906000526020600020905b815481529060010190602001808311610b9957829003601f168201915b50505050508152505085600183610bcd91906158f3565b81518110610c04577f4e487b7100000000000000000000000000000000000000000000000000000000600052603260045260246000fd5b6020026020010181905250600860008281526020019081526020016000205484600183610c3191906158f3565b81518110610c68577f4e487b7100000000000000000000000000000000000000000000000000000000600052603260045260246000fd5b6020026020010181815250506009600082815260200190815260200160002060003373ffffffffffffffffffffffffffffffffffffffff1673ffffffffffffffffffffffffffffffffffffffff16815260200190815260200160002060009054906101000a900460ff1683600183610ce091906158f3565b81518110610d17577f4e487b7100000000000000000000000000000000000000000000000000000000600052603260045260246000fd5b6020026020010190151590811515815250508080610d3490615a51565b91505061070e565b505090919293565b6060806000600154905060008167ffffffffffffffff811115610d90577f4e487b7100000000000000000000000000000000000000000000000000000000600052604160045260246000fd5b604051908082528060200260200182016040528015610dc957816020015b610db6614010565b815260200190600190039081610dae5790505b50905060008267ffffffffffffffff811115610e0e577f4e487b7100000000000000000000000000000000000000000000000000000000600052604160045260246000fd5b604051908082528060200260200182016040528015610e4757816020015b610e34614125565b815260200190600190039081610e2c5790505b50905060005b838110156113625760026000600183610e66919061589d565b815260200190815260200160002060405180610180016040529081600082015481526020016001820160009054906101000a900473ffffffffffffffffffffffffffffffffffffffff1673ffffffffffffffffffffffffffffffffffffffff1673ffffffffffffffffffffffffffffffffffffffff1681526020016002820154815260200160038201548152602001600482015481526020016005820160009054906101000a900460ff166001811115610f49577f4e487b7100000000000000000000000000000000000000000000000000000000600052602160045260246000fd5b6001811115610f81577f4e487b7100000000000000000000000000000000000000000000000000000000600052602160045260246000fd5b81526020016005820160019054906101000a900460ff161515151581526020016005820160029054906101000a900460ff166004811115610feb577f4e487b7100000000000000000000000000000000000000000000000000000000600052602160045260246000fd5b6004811115611023577f4e487b7100000000000000000000000000000000000000000000000000000000600052602160045260246000fd5b81526020016005820160039054906101000a900473ffffffffffffffffffffffffffffffffffffffff1673ffffffffffffffffffffffffffffffffffffffff1673ffffffffffffffffffffffffffffffffffffffff1681526020016006820160009054906101000a900473ffffffffffffffffffffffffffffffffffffffff1673ffffffffffffffffffffffffffffffffffffffff1673ffffffffffffffffffffffffffffffffffffffff16815260200160078201548152602001600882015481525050838281518110611120577f4e487b7100000000000000000000000000000000000000000000000000000000600052603260045260246000fd5b60200260200101819052506003600060018361113c919061589d565b815260200190815260200160002060405180606001604052908160008201805461116590615a1f565b80601f016020809104026020016040519081016040528092919081815260200182805461119190615a1f565b80156111de5780601f106111b3576101008083540402835291602001916111de565b820191906000526020600020905b8154815290600101906020018083116111c157829003601f168201915b505050505081526020016001820180546111f790615a1f565b80601f016020809104026020016040519081016040528092919081815260200182805461122390615a1f565b80156112705780601f1061124557610100808354040283529160200191611270565b820191906000526020600020905b81548152906001019060200180831161125357829003601f168201915b5050505050815260200160028201805461128990615a1f565b80601f01602080910402602001604051908101604052809291908181526020018280546112b590615a1f565b80156113025780601f106112d757610100808354040283529160200191611302565b820191906000526020600020905b8154815290600101906020018083116112e557829003601f168201915b505050505081525050828281518110611344577f4e487b7100000000000000000000000000000000000000000000000000000000600052603260045260246000fd5b6020026020010181905250808061135a90615a51565b915050610e4d565b508181945094505050509091565b60026020528060005260406000206000915090508060000154908060010160009054906101000a900473ffffffffffffffffffffffffffffffffffffffff16908060020154908060030154908060040154908060050160009054906101000a900460ff16908060050160019054906101000a900460ff16908060050160029054906101000a900460ff16908060050160039054906101000a900473ffffffffffffffffffffffffffffffffffffffff16908060060160009054906101000a900473ffffffffffffffffffffffffffffffffffffffff1690806007015490806008015490508c565b60075481565b6060600660008373ffffffffffffffffffffffffffffffffffffffff1673ffffffffffffffffffffffffffffffffffffffff1681526020019081526020016000208054806020026020016040519081016040528092919081815260200182805480156114e857602002820191906000526020600020905b8154815260200190600101908083116114d4575b50505050509050919050565b60015481565b60006002600083815260200190815260200160002090503373ffffffffffffffffffffffffffffffffffffffff168160010160009054906101000a900473ffffffffffffffffffffffffffffffffffffffff1673ffffffffffffffffffffffffffffffffffffffff16146115a3576040517f08c379a000000000000000000000000000000000000000000000000000000000815260040161159a90615501565b60405180910390fd5b600060048111156115dd577f4e487b7100000000000000000000000000000000000000000000000000000000600052602160045260246000fd5b8160050160029054906101000a900460ff166004811115611627577f4e487b7100000000000000000000000000000000000000000000000000000000600052602160045260246000fd5b14611667576040517f08c379a000000000000000000000000000000000000000000000000000000000815260040161165e90615481565b60405180910390fd5b60018160050160026101000a81548160ff021916908360048111156116b5577f4e487b7100000000000000000000000000000000000000000000000000000000600052602160045260246000fd5b02179055504281600301819055506116d08260016000613ead565b817f485da320df165207f20a6852f437d36af7b7f0bba91a7f689553c25aac73cbb960405160405180910390a25050565b611709614010565b6002600083815260200190815260200160002060405180610180016040529081600082015481526020016001820160009054906101000a900473ffffffffffffffffffffffffffffffffffffffff1673ffffffffffffffffffffffffffffffffffffffff1673ffffffffffffffffffffffffffffffffffffffff1681526020016002820154815260200160038201548152602001600482015481526020016005820160009054906101000a900460ff1660018111156117f1577f4e487b7100000000000000000000000000000000000000000000000000000000600052602160045260246000fd5b6001811115611829577f4e487b7100000000000000000000000000000000000000000000000000000000600052602160045260246000fd5b81526020016005820160019054906101000a900460ff161515151581526020016005820160029054906101000a900460ff166004811115611893577f4e487b7100000000000000000000000000000000000000000000000000000000600052602160045260246000fd5b60048111156118cb577f4e487b7100000000000000000000000000000000000000000000000000000000600052602160045260246000fd5b81526020016005820160039054906101000a900473ffffffffffffffffffffffffffffffffffffffff1673ffffffffffffffffffffffffffffffffffffffff1673ffffffffffffffffffffffffffffffffffffffff1681526020016006820160009054906101000a900473ffffffffffffffffffffffffffffffffffffffff1673ffffffffffffffffffffffffffffffffffffffff1673ffffffffffffffffffffffffffffffffffffffff168152602001600782015481526020016008820154815250509050919050565b6006808111156119cf577f4e487b7100000000000000000000000000000000000000000000000000000000600052602160045260246000fd5b60008054906101000a900473ffffffffffffffffffffffffffffffffffffffff1673ffffffffffffffffffffffffffffffffffffffff16636f77926b336040518263ffffffff1660e01b8152600401611a2891906151d8565b60006040518083038186803b158015611a4057600080fd5b505afa158015611a54573d6000803e3d6000fd5b505050506040513d6000823e3d601f19601f82011682018060405250810190611a7d91906145e7565b604001516006811115611ab9577f4e487b7100000000000000000000000000000000000000000000000000000000600052602160045260246000fd5b14611af9576040517f08c379a0000000000000000000000000000000000000000000000000000000008152600401611af090615421565b60405180910390fd5b6009600082815260200190815260200160002060003373ffffffffffffffffffffffffffffffffffffffff1673ffffffffffffffffffffffffffffffffffffffff16815260200190815260200160002060009054906101000a900460ff1615611b97576040517f08c379a0000000000000000000000000000000000000000000000000000000008152600401611b8e90615561565b60405180910390fd5b60016009600083815260200190815260200160002060003373ffffffffffffffffffffffffffffffffffffffff1673ffffffffffffffffffffffffffffffffffffffff16815260200190815260200160002060006101000a81548160ff021916908315150217905550600860008281526020019081526020016000206000815480929190611c2490615a51565b9190505550600754600860008381526020019081526020016000205410611c755760016002600083815260200190815260200160002060050160016101000a81548160ff0219169083151502179055505b3373ffffffffffffffffffffffffffffffffffffffff16817fab60911bebc6d3ab48620594e409545834da76f4995297ebc48ca5589f25437b60405160405180910390a350565b6003602052806000526040600020600091509050806000018054611cdf90615a1f565b80601f0160208091040260200160405190810160405280929190818152602001828054611d0b90615a1f565b8015611d585780601f10611d2d57610100808354040283529160200191611d58565b820191906000526020600020905b815481529060010190602001808311611d3b57829003601f168201915b505050505090806001018054611d6d90615a1f565b80601f0160208091040260200160405190810160405280929190818152602001828054611d9990615a1f565b8015611de65780601f10611dbb57610100808354040283529160200191611de6565b820191906000526020600020905b815481529060010190602001808311611dc957829003601f168201915b505050505090806002018054611dfb90615a1f565b80601f0160208091040260200160405190810160405280929190818152602001828054611e2790615a1f565b8015611e745780601f10611e4957610100808354040283529160200191611e74565b820191906000526020600020905b815481529060010190602001808311611e5757829003601f168201915b5050505050905083565b60096020528160005260406000206020528060005260406000206000915091509054906101000a900460ff1681565b606060046000838152602001908152602001600020805480602002602001604051908101604052809291908181526020016000905b8282101561200557838290600052602060002090600302016040518060800160405290816000820160009054906101000a900460ff166004811115611f50577f4e487b7100000000000000000000000000000000000000000000000000000000600052602160045260246000fd5b6004811115611f88577f4e487b7100000000000000000000000000000000000000000000000000000000600052602160045260246000fd5b81526020016000820160019054906101000a900473ffffffffffffffffffffffffffffffffffffffff1673ffffffffffffffffffffffffffffffffffffffff1673ffffffffffffffffffffffffffffffffffffffff1681526020016001820154815260200160028201548152505081526020019060010190611ee2565b505050509050919050565b60008054906101000a900473ffffffffffffffffffffffffffffffffffffffff1681565b6001600681111561206e577f4e487b7100000000000000000000000000000000000000000000000000000000600052602160045260246000fd5b60008054906101000a900473ffffffffffffffffffffffffffffffffffffffff1673ffffffffffffffffffffffffffffffffffffffff16636f77926b336040518263ffffffff1660e01b81526004016120c791906151d8565b60006040518083038186803b1580156120df57600080fd5b505afa1580156120f3573d6000803e3d6000fd5b505050506040513d6000823e3d601f19601f8201168201806040525081019061211c91906145e7565b604001516006811115612158577f4e487b7100000000000000000000000000000000000000000000000000000000600052602160045260246000fd5b14612198576040517f08c379a000000000000000000000000000000000000000000000000000000000815260040161218f906154c1565b60405180910390fd5b600160008154809291906121ab90615a51565b919050555060405180610180016040528060015481526020013373ffffffffffffffffffffffffffffffffffffffff1681526020014281526020016000815260200183815260200185600181111561222c577f4e487b7100000000000000000000000000000000000000000000000000000000600052602160045260246000fd5b815260200160001515815260200160006004811115612274577f4e487b7100000000000000000000000000000000000000000000000000000000600052602160045260246000fd5b81526020013373ffffffffffffffffffffffffffffffffffffffff168152602001600073ffffffffffffffffffffffffffffffffffffffff1681526020016000815260200160008152506002600060015481526020019081526020016000206000820151816000015560208201518160010160006101000a81548173ffffffffffffffffffffffffffffffffffffffff021916908373ffffffffffffffffffffffffffffffffffffffff16021790555060408201518160020155606082015181600301556080820151816004015560a08201518160050160006101000a81548160ff02191690836001811115612393577f4e487b7100000000000000000000000000000000000000000000000000000000600052602160045260246000fd5b021790555060c08201518160050160016101000a81548160ff02191690831515021790555060e08201518160050160026101000a81548160ff02191690836004811115612409577f4e487b7100000000000000000000000000000000000000000000000000000000600052602160045260246000fd5b02179055506101008201518160050160036101000a81548173ffffffffffffffffffffffffffffffffffffffff021916908373ffffffffffffffffffffffffffffffffffffffff1602179055506101208201518160060160006101000a81548173ffffffffffffffffffffffffffffffffffffffff021916908373ffffffffffffffffffffffffffffffffffffffff160217905550610140820151816007015561016082015181600801559050506040518060600160405280868152602001828152602001848152506003600060015481526020019081526020016000206000820151816000019080519060200190612503929190614146565b506020820151816001019080519060200190612520929190614146565b50604082015181600201908051906020019061253d929190614146565b50905050600660003373ffffffffffffffffffffffffffffffffffffffff1673ffffffffffffffffffffffffffffffffffffffff16815260200190815260200160002060015490806001815401808255809150506001900390600052602060002001600090919091909150556125b7600154600080613ead565b3373ffffffffffffffffffffffffffffffffffffffff166001547f2e828f5be6b9234a6508bab1c1c26572aeb213214b9f39d18ae1e3bdec27d365876040516126009190615373565b60405180910390a35050505050565b612617614010565b61261f614125565b60026000848152602001908152602001600020600360008581526020019081526020016000208160405180610180016040529081600082015481526020016001820160009054906101000a900473ffffffffffffffffffffffffffffffffffffffff1673ffffffffffffffffffffffffffffffffffffffff1673ffffffffffffffffffffffffffffffffffffffff1681526020016002820154815260200160038201548152602001600482015481526020016005820160009054906101000a900460ff16600181111561271b577f4e487b7100000000000000000000000000000000000000000000000000000000600052602160045260246000fd5b6001811115612753577f4e487b7100000000000000000000000000000000000000000000000000000000600052602160045260246000fd5b81526020016005820160019054906101000a900460ff161515151581526020016005820160029054906101000a900460ff1660048111156127bd577f4e487b7100000000000000000000000000000000000000000000000000000000600052602160045260246000fd5b60048111156127f5577f4e487b7100000000000000000000000000000000000000000000000000000000600052602160045260246000fd5b81526020016005820160039054906101000a900473ffffffffffffffffffffffffffffffffffffffff1673ffffffffffffffffffffffffffffffffffffffff1673ffffffffffffffffffffffffffffffffffffffff1681526020016006820160009054906101000a900473ffffffffffffffffffffffffffffffffffffffff1673ffffffffffffffffffffffffffffffffffffffff1673ffffffffffffffffffffffffffffffffffffffff168152602001600782015481526020016008820154815250509150806040518060600160405290816000820180546128d790615a1f565b80601f016020809104026020016040519081016040528092919081815260200182805461290390615a1f565b80156129505780601f1061292557610100808354040283529160200191612950565b820191906000526020600020905b81548152906001019060200180831161293357829003601f168201915b5050505050815260200160018201805461296990615a1f565b80601f016020809104026020016040519081016040528092919081815260200182805461299590615a1f565b80156129e25780601f106129b7576101008083540402835291602001916129e2565b820191906000526020600020905b8154815290600101906020018083116129c557829003601f168201915b505050505081526020016002820180546129fb90615a1f565b80601f0160208091040260200160405190810160405280929190818152602001828054612a2790615a1f565b8015612a745780601f10612a4957610100808354040283529160200191612a74565b820191906000526020600020905b815481529060010190602001808311612a5757829003601f168201915b505050505081525050905091509150915091565b60006002600085815260200190815260200160002090503373ffffffffffffffffffffffffffffffffffffffff168160050160039054906101000a900473ffffffffffffffffffffffffffffffffffffffff1673ffffffffffffffffffffffffffffffffffffffff1614612b31576040517f08c379a0000000000000000000000000000000000000000000000000000000008152600401612b2890615441565b60405180910390fd5b60016004811115612b6b577f4e487b7100000000000000000000000000000000000000000000000000000000600052602160045260246000fd5b8160050160029054906101000a900460ff166004811115612bb5577f4e487b7100000000000000000000000000000000000000000000000000000000600052602160045260246000fd5b1480612c42575060036004811115612bf6577f4e487b7100000000000000000000000000000000000000000000000000000000600052602160045260246000fd5b8160050160029054906101000a900460ff166004811115612c40577f4e487b7100000000000000000000000000000000000000000000000000000000600052602160045260246000fd5b145b612c81576040517f08c379a0000000000000000000000000000000000000000000000000000000008152600401612c7890615541565b60405180910390fd5b60026006811115612cbb577f4e487b7100000000000000000000000000000000000000000000000000000000600052602160045260246000fd5b60008054906101000a900473ffffffffffffffffffffffffffffffffffffffff1673ffffffffffffffffffffffffffffffffffffffff16636f77926b856040518263ffffffff1660e01b8152600401612d1491906151d8565b60006040518083038186803b158015612d2c57600080fd5b505afa158015612d40573d6000803e3d6000fd5b505050506040513d6000823e3d601f19601f82011682018060405250810190612d6991906145e7565b604001516006811115612da5577f4e487b7100000000000000000000000000000000000000000000000000000000600052602160045260246000fd5b14612de5576040517f08c379a0000000000000000000000000000000000000000000000000000000008152600401612ddc906153e1565b60405180910390fd5b60008211612e28576040517f08c379a0000000000000000000000000000000000000000000000000000000008152600401612e1f90615521565b60405180910390fd5b60028160050160026101000a81548160ff02191690836004811115612e76577f4e487b7100000000000000000000000000000000000000000000000000000000600052602160045260246000fd5b0217905550828160060160006101000a81548173ffffffffffffffffffffffffffffffffffffffff021916908373ffffffffffffffffffffffffffffffffffffffff1602179055503373ffffffffffffffffffffffffffffffffffffffff168160010160009054906101000a900473ffffffffffffffffffffffffffffffffffffffff1673ffffffffffffffffffffffffffffffffffffffff161415612f20578181600701819055505b612f2c84600284613ead565b8273ffffffffffffffffffffffffffffffffffffffff163373ffffffffffffffffffffffffffffffffffffffff16857f6297f3ba1130d22c92a5e79901f1a07b8261f9faaf6c67cf996235e1e0c2d63085604051612f8a91906155f1565b60405180910390a450505050565b60086020528060005260406000206000915090505481565b60046020528160005260406000208181548110612fcc57600080fd5b9060005260206000209060030201600091509150508060000160009054906101000a900460ff16908060000160019054906101000a900473ffffffffffffffffffffffffffffffffffffffff16908060010154908060020154905084565b60006002600083815260200190815260200160002090506002600481111561307b577f4e487b7100000000000000000000000000000000000000000000000000000000600052602160045260246000fd5b8160050160029054906101000a900460ff1660048111156130c5577f4e487b7100000000000000000000000000000000000000000000000000000000600052602160045260246000fd5b14613105576040517f08c379a00000000000000000000000000000000000000000000000000000000081526004016130fc90615461565b60405180910390fd5b3373ffffffffffffffffffffffffffffffffffffffff168160060160009054906101000a900473ffffffffffffffffffffffffffffffffffffffff1673ffffffffffffffffffffffffffffffffffffffff1614613197576040517f08c379a000000000000000000000000000000000000000000000000000000000815260040161318e90615401565b60405180910390fd5b60038160050160026101000a81548160ff021916908360048111156131e5577f4e487b7100000000000000000000000000000000000000000000000000000000600052602160045260246000fd5b0217905550338160050160036101000a81548173ffffffffffffffffffffffffffffffffffffffff021916908373ffffffffffffffffffffffffffffffffffffffff16021790555060008160060160006101000a81548173ffffffffffffffffffffffffffffffffffffffff021916908373ffffffffffffffffffffffffffffffffffffffff16021790555061327e8260036000613ead565b3373ffffffffffffffffffffffffffffffffffffffff16827f88f3a431c8e7503e1205db0131787d8fdd671a45c660e4c9083954584993912f60405160405180910390a35050565b600060026000848152602001908152602001600020905060026006811115613317577f4e487b7100000000000000000000000000000000000000000000000000000000600052602160045260246000fd5b60008054906101000a900473ffffffffffffffffffffffffffffffffffffffff1673ffffffffffffffffffffffffffffffffffffffff16636f77926b336040518263ffffffff1660e01b815260040161337091906151d8565b60006040518083038186803b15801561338857600080fd5b505afa15801561339c573d6000803e3d6000fd5b505050506040513d6000823e3d601f19601f820116820180604052508101906133c591906145e7565b604001516006811115613401577f4e487b7100000000000000000000000000000000000000000000000000000000600052602160045260246000fd5b14613441576040517f08c379a0000000000000000000000000000000000000000000000000000000008152600401613438906154a1565b60405180910390fd5b3373ffffffffffffffffffffffffffffffffffffffff168160050160039054906101000a900473ffffffffffffffffffffffffffffffffffffffff1673ffffffffffffffffffffffffffffffffffffffff16146134d3576040517f08c379a00000000000000000000000000000000000000000000000000000000081526004016134ca90615441565b60405180910390fd5b80600701548211613519576040517f08c379a0000000000000000000000000000000000000000000000000000000008152600401613510906154e1565b60405180910390fd5b60048160050160026101000a81548160ff02191690836004811115613567577f4e487b7100000000000000000000000000000000000000000000000000000000600052602160045260246000fd5b021790555081816008018190555061358183600484613ead565b3373ffffffffffffffffffffffffffffffffffffffff16837fd35079bd9f0d87556b38c1165117ccd975a6b3c2dd3c85342d8c02343bde1d9f6004856040516135cb92919061534a565b60405180910390a3505050565b600660205281600052604060002081815481106135f457600080fd5b90600052602060002001600091509150505481565b613611614125565b6003600083815260200190815260200160002060405180606001604052908160008201805461363f90615a1f565b80601f016020809104026020016040519081016040528092919081815260200182805461366b90615a1f565b80156136b85780601f1061368d576101008083540402835291602001916136b8565b820191906000526020600020905b81548152906001019060200180831161369b57829003601f168201915b505050505081526020016001820180546136d190615a1f565b80601f01602080910402602001604051908101604052809291908181526020018280546136fd90615a1f565b801561374a5780601f1061371f5761010080835404028352916020019161374a565b820191906000526020600020905b81548152906001019060200180831161372d57829003601f168201915b5050505050815260200160028201805461376390615a1f565b80601f016020809104026020016040519081016040528092919081815260200182805461378f90615a1f565b80156137dc5780601f106137b1576101008083540402835291602001916137dc565b820191906000526020600020905b8154815290600101906020018083116137bf57829003601f168201915b5050505050815250509050919050565b6005602052816000526040600020818154811061380857600080fd5b90600052602060002001600091509150505481565b6060806000835167ffffffffffffffff811115613863577f4e487b7100000000000000000000000000000000000000000000000000000000600052604160045260246000fd5b60405190808252806020026020018201604052801561389c57816020015b613889614010565b8152602001906001900390816138815790505b5090506000845167ffffffffffffffff8111156138e2577f4e487b7100000000000000000000000000000000000000000000000000000000600052604160045260246000fd5b60405190808252806020026020018201604052801561391b57816020015b613908614125565b8152602001906001900390816139005790505b50905060005b8551811015613e9f5760026000878381518110613967577f4e487b7100000000000000000000000000000000000000000000000000000000600052603260045260246000fd5b6020026020010151815260200190815260200160002060405180610180016040529081600082015481526020016001820160009054906101000a900473ffffffffffffffffffffffffffffffffffffffff1673ffffffffffffffffffffffffffffffffffffffff1673ffffffffffffffffffffffffffffffffffffffff1681526020016002820154815260200160038201548152602001600482015481526020016005820160009054906101000a900460ff166001811115613a52577f4e487b7100000000000000000000000000000000000000000000000000000000600052602160045260246000fd5b6001811115613a8a577f4e487b7100000000000000000000000000000000000000000000000000000000600052602160045260246000fd5b81526020016005820160019054906101000a900460ff161515151581526020016005820160029054906101000a900460ff166004811115613af4577f4e487b7100000000000000000000000000000000000000000000000000000000600052602160045260246000fd5b6004811115613b2c577f4e487b7100000000000000000000000000000000000000000000000000000000600052602160045260246000fd5b81526020016005820160039054906101000a900473ffffffffffffffffffffffffffffffffffffffff1673ffffffffffffffffffffffffffffffffffffffff1673ffffffffffffffffffffffffffffffffffffffff1681526020016006820160009054906101000a900473ffffffffffffffffffffffffffffffffffffffff1673ffffffffffffffffffffffffffffffffffffffff1673ffffffffffffffffffffffffffffffffffffffff16815260200160078201548152602001600882015481525050838281518110613c29577f4e487b7100000000000000000000000000000000000000000000000000000000600052603260045260246000fd5b602002602001018190525060036000878381518110613c71577f4e487b7100000000000000000000000000000000000000000000000000000000600052603260045260246000fd5b60200260200101518152602001908152602001600020604051806060016040529081600082018054613ca290615a1f565b80601f0160208091040260200160405190810160405280929190818152602001828054613cce90615a1f565b8015613d1b5780601f10613cf057610100808354040283529160200191613d1b565b820191906000526020600020905b815481529060010190602001808311613cfe57829003601f168201915b50505050508152602001600182018054613d3490615a1f565b80601f0160208091040260200160405190810160405280929190818152602001828054613d6090615a1f565b8015613dad5780601f10613d8257610100808354040283529160200191613dad565b820191906000526020600020905b815481529060010190602001808311613d9057829003601f168201915b50505050508152602001600282018054613dc690615a1f565b80601f0160208091040260200160405190810160405280929190818152602001828054613df290615a1f565b8015613e3f5780601f10613e1457610100808354040283529160200191613e3f565b820191906000526020600020905b815481529060010190602001808311613e2257829003601f168201915b505050505081525050828281518110613e81577f4e487b7100000000000000000000000000000000000000000000000000000000600052603260045260246000fd5b60200260200101819052508080613e9790615a51565b915050613921565b508181935093505050915091565b600460008481526020019081526020016000206040518060800160405280846004811115613f04577f4e487b7100000000000000000000000000000000000000000000000000000000600052602160045260246000fd5b81526020013373ffffffffffffffffffffffffffffffffffffffff16815260200142815260200183815250908060018154018082558091505060019003906000526020600020906003020160009091909190915060008201518160000160006101000a81548160ff02191690836004811115613fa9577f4e487b7100000000000000000000000000000000000000000000000000000000600052602160045260246000fd5b021790555060208201518160000160016101000a81548173ffffffffffffffffffffffffffffffffffffffff021916908373ffffffffffffffffffffffffffffffffffffffff16021790555060408201518160010155606082015181600201555050505050565b60405180610180016040528060008152602001600073ffffffffffffffffffffffffffffffffffffffff1681526020016000815260200160008152602001600081526020016000600181111561408f577f4e487b7100000000000000000000000000000000000000000000000000000000600052602160045260246000fd5b8152602001600015158152602001600060048111156140d7577f4e487b7100000000000000000000000000000000000000000000000000000000600052602160045260246000fd5b8152602001600073ffffffffffffffffffffffffffffffffffffffff168152602001600073ffffffffffffffffffffffffffffffffffffffff16815260200160008152602001600081525090565b60405180606001604052806060815260200160608152602001606081525090565b82805461415290615a1f565b90600052602060002090601f01602090048101928261417457600085556141bb565b82601f1061418d57805160ff19168380011785556141bb565b828001600101855582156141bb579182015b828111156141ba57825182559160200191906001019061419f565b5b5090506141c891906141cc565b5090565b5b808211156141e55760008160009055506001016141cd565b5090565b60006141fc6141f7846156f7565b6156c6565b9050808382526020820190508285602086028201111561421b57600080fd5b60005b8581101561424b57816142318882614458565b84526020840193506020830192505060018101905061421e565b5050509392505050565b600061426861426384615723565b6156c6565b90508281526020810184848401111561428057600080fd5b61428b8482856159dd565b509392505050565b60006142a66142a184615723565b6156c6565b9050828152602081018484840111156142be57600080fd5b6142c98482856159ec565b509392505050565b6000813590506142e081615b8f565b92915050565b6000815190506142f581615b8f565b92915050565b600082601f83011261430c57600080fd5b813561431c8482602086016141e9565b91505092915050565b60008151905061433481615ba6565b92915050565b60008135905061434981615bbd565b92915050565b60008151905061435e81615bcd565b92915050565b600082601f83011261437557600080fd5b8135614385848260208601614255565b91505092915050565b600082601f83011261439f57600080fd5b81516143af848260208601614293565b91505092915050565b600060a082840312156143ca57600080fd5b6143d460a06156c6565b905060006143e4848285016142e6565b600083015250602082015167ffffffffffffffff81111561440457600080fd5b6144108482850161438e565b60208301525060406144248482850161434f565b604083015250606061443884828501614325565b606083015250608061444c8482850161446d565b60808301525092915050565b60008135905061446781615bdd565b92915050565b60008151905061447c81615bdd565b92915050565b60006020828403121561449457600080fd5b60006144a2848285016142d1565b91505092915050565b600080604083850312156144be57600080fd5b60006144cc858286016142d1565b92505060206144dd85828601614458565b9150509250929050565b6000602082840312156144f957600080fd5b600082013567ffffffffffffffff81111561451357600080fd5b61451f848285016142fb565b91505092915050565b600080600080600060a0868803121561454057600080fd5b600086013567ffffffffffffffff81111561455a57600080fd5b61456688828901614364565b95505060206145778882890161433a565b945050604086013567ffffffffffffffff81111561459457600080fd5b6145a088828901614364565b93505060606145b188828901614458565b925050608086013567ffffffffffffffff8111156145ce57600080fd5b6145da88828901614364565b9150509295509295909350565b6000602082840312156145f957600080fd5b600082015167ffffffffffffffff81111561461357600080fd5b61461f848285016143b8565b91505092915050565b60006020828403121561463a57600080fd5b600061464884828501614458565b91505092915050565b6000806040838503121561466457600080fd5b600061467285828601614458565b9250506020614683858286016142d1565b9150509250929050565b6000806000606084860312156146a257600080fd5b60006146b086828701614458565b93505060206146c1868287016142d1565b92505060406146d286828701614458565b9150509250925092565b600080604083850312156146ef57600080fd5b60006146fd85828601614458565b925050602061470e85828601614458565b9150509250929050565b60006147248383614998565b60208301905092915050565b600061473c8383614ebd565b6101808301905092915050565b600061475583836150a9565b905092915050565b60006147698383615165565b60808301905092915050565b600061478183836151ba565b60208301905092915050565b61479681615927565b82525050565b6147a581615927565b82525050565b60006147b6826157a3565b6147c08185615826565b93506147cb83615753565b8060005b838110156147fc5781516147e38882614718565b97506147ee836157e5565b9250506001810190506147cf565b5085935050505092915050565b6000614814826157ae565b61481e8185615837565b935061482983615763565b8060005b8381101561485a5781516148418882614730565b975061484c836157f2565b92505060018101905061482d565b5085935050505092915050565b6000614872826157b9565b61487c8185615848565b93508360208202850161488e85615773565b8060005b858110156148ca57848403895281516148ab8582614749565b94506148b6836157ff565b925060208a01995050600181019050614892565b50829750879550505050505092915050565b60006148e7826157c4565b6148f18185615859565b93506148fc83615783565b8060005b8381101561492d578151614914888261475d565b975061491f8361580c565b925050600181019050614900565b5085935050505092915050565b6000614945826157cf565b61494f818561586a565b935061495a83615793565b8060005b8381101561498b5781516149728882614775565b975061497d83615819565b92505060018101905061495e565b5085935050505092915050565b6149a181615939565b82525050565b6149b081615939565b82525050565b6149bf81615995565b82525050565b6149ce816159b9565b82525050565b6149dd816159b9565b82525050565b6149ec816159cb565b82525050565b6149fb816159cb565b82525050565b6000614a0c826157da565b614a16818561587b565b9350614a268185602086016159ec565b614a2f81615b56565b840191505092915050565b6000614a45826157da565b614a4f818561588c565b9350614a5f8185602086016159ec565b614a6881615b56565b840191505092915050565b6000614a8060258361588c565b91507f5265636569766572206d7573742062652061207265676973746572656420766560008301527f6e646f722e0000000000000000000000000000000000000000000000000000006020830152604082019050919050565b6000614ae660258361588c565b91507f596f7520617265206e6f74207468652064657369676e6174656420726563697060008301527f69656e742e0000000000000000000000000000000000000000000000000000006020830152604082019050919050565b6000614b4c60248361588c565b91507f4f6e6c79207665726966696572732063616e20636572746966792070726f647560008301527f6374732e000000000000000000000000000000000000000000000000000000006020830152604082019050919050565b6000614bb2601e8361588c565b91507f596f7520617265206e6f74207468652063757272656e74206f776e65722e00006000830152602082019050919050565b6000614bf2601a8361588c565b91507f50726f64756374206973206e6f7420696e207472616e7369742e0000000000006000830152602082019050919050565b6000614c32601e8361588c565b91507f50726f64756374206d75737420626520696e20536f776e2073746167652e00006000830152602082019050919050565b6000614c72601f8361588c565b91507f4f6e6c792076656e646f72732063616e2073656c6c2070726f64756374732e006000830152602082019050919050565b6000614cb2601e8361588c565b91507f4f6e6c79206661726d6572732063616e206164642070726f64756374732e00006000830152602082019050919050565b6000614cf2602e8361588c565b91507f53616c65207072696365206d75737420626520686967686572207468616e207060008301527f757263686173652070726963652e0000000000000000000000000000000000006020830152604082019050919050565b6000614d5860298361588c565b91507f4f6e6c7920746865206f726967696e616c206661726d65722063616e206c6f6760008301527f20686172766573742e00000000000000000000000000000000000000000000006020830152604082019050919050565b6000614dbe60208361588c565b91507f5072696365206d7573742062652067726561746572207468616e207a65726f2e6000830152602082019050919050565b6000614dfe60388361588c565b91507f50726f64756374206d75737420626520486172766573746564206f722041745660008301527f656e646f7220746f206265207472616e736665727265642e00000000000000006020830152604082019050919050565b6000614e6460278361588c565b91507f596f75206861766520616c72656164792076657269666965642074686973207060008301527f726f647563742e000000000000000000000000000000000000000000000000006020830152604082019050919050565b61018082016000820151614ed460008501826151ba565b506020820151614ee7602085018261478d565b506040820151614efa60408501826151ba565b506060820151614f0d60608501826151ba565b506080820151614f2060808501826151ba565b5060a0820151614f3360a08501826149c5565b5060c0820151614f4660c0850182614998565b5060e0820151614f5960e08501826149e3565b50610100820151614f6e61010085018261478d565b50610120820151614f8361012085018261478d565b50610140820151614f986101408501826151ba565b50610160820151614fad6101608501826151ba565b50505050565b61018082016000820151614fca60008501826151ba565b506020820151614fdd602085018261478d565b506040820151614ff060408501826151ba565b50606082015161500360608501826151ba565b50608082015161501660808501826151ba565b5060a082015161502960a08501826149c5565b5060c082015161503c60c0850182614998565b5060e082015161504f60e08501826149e3565b5061010082015161506461010085018261478d565b5061012082015161507961012085018261478d565b5061014082015161508e6101408501826151ba565b506101608201516150a36101608501826151ba565b50505050565b600060608301600083015184820360008601526150c68282614a01565b915050602083015184820360208601526150e08282614a01565b915050604083015184820360408601526150fa8282614a01565b9150508091505092915050565b600060608301600083015184820360008601526151248282614a01565b9150506020830151848203602086015261513e8282614a01565b915050604083015184820360408601526151588282614a01565b9150508091505092915050565b60808201600082015161517b60008501826149e3565b50602082015161518e602085018261478d565b5060408201516151a160408501826151ba565b5060608201516151b460608501826151ba565b50505050565b6151c38161598b565b82525050565b6151d28161598b565b82525050565b60006020820190506151ed600083018461479c565b92915050565b6000604082019050818103600083015261520d8185614809565b905081810360208301526152218184614867565b90509392505050565b600060808201905081810360008301526152448187614809565b905081810360208301526152588186614867565b9050818103604083015261526c818561493a565b9050818103606083015261528081846147ab565b905095945050505050565b600060208201905081810360008301526152a581846148dc565b905092915050565b600060208201905081810360008301526152c7818461493a565b905092915050565b60006020820190506152e460008301846149a7565b92915050565b60006020820190506152ff60008301846149b6565b92915050565b600060808201905061531a60008301876149f2565b615327602083018661479c565b61533460408301856151c9565b61534160608301846151c9565b95945050505050565b600060408201905061535f60008301856149f2565b61536c60208301846151c9565b9392505050565b6000602082019050818103600083015261538d8184614a3a565b905092915050565b600060608201905081810360008301526153af8186614a3a565b905081810360208301526153c38185614a3a565b905081810360408301526153d78184614a3a565b9050949350505050565b600060208201905081810360008301526153fa81614a73565b9050919050565b6000602082019050818103600083015261541a81614ad9565b9050919050565b6000602082019050818103600083015261543a81614b3f565b9050919050565b6000602082019050818103600083015261545a81614ba5565b9050919050565b6000602082019050818103600083015261547a81614be5565b9050919050565b6000602082019050818103600083015261549a81614c25565b9050919050565b600060208201905081810360008301526154ba81614c65565b9050919050565b600060208201905081810360008301526154da81614ca5565b9050919050565b600060208201905081810360008301526154fa81614ce5565b9050919050565b6000602082019050818103600083015261551a81614d4b565b9050919050565b6000602082019050818103600083015261553a81614db1565b9050919050565b6000602082019050818103600083015261555a81614df1565b9050919050565b6000602082019050818103600083015261557a81614e57565b9050919050565b6000610180820190506155976000830184614fb3565b92915050565b60006101a0820190506155b36000830185614fb3565b8181036101808301526155c68184615107565b90509392505050565b600060208201905081810360008301526155e98184615107565b905092915050565b600060208201905061560660008301846151c9565b92915050565b600061018082019050615622600083018f6151c9565b61562f602083018e61479c565b61563c604083018d6151c9565b615649606083018c6151c9565b615656608083018b6151c9565b61566360a083018a6149d4565b61567060c08301896149a7565b61567d60e08301886149f2565b61568b61010083018761479c565b61569961012083018661479c565b6156a76101408301856151c9565b6156b56101608301846151c9565b9d9c50505050505050505050505050565b6000604051905081810181811067ffffffffffffffff821117156156ed576156ec615b27565b5b8060405250919050565b600067ffffffffffffffff82111561571257615711615b27565b5b602082029050602081019050919050565b600067ffffffffffffffff82111561573e5761573d615b27565b5b601f19601f8301169050602081019050919050565b6000819050602082019050919050565b6000819050602082019050919050565b6000819050602082019050919050565b6000819050602082019050919050565b6000819050602082019050919050565b600081519050919050565b600081519050919050565b600081519050919050565b600081519050919050565b600081519050919050565b600081519050919050565b6000602082019050919050565b6000602082019050919050565b6000602082019050919050565b6000602082019050919050565b6000602082019050919050565b600082825260208201905092915050565b600082825260208201905092915050565b600082825260208201905092915050565b600082825260208201905092915050565b600082825260208201905092915050565b600082825260208201905092915050565b600082825260208201905092915050565b60006158a88261598b565b91506158b38361598b565b9250827fffffffffffffffffffffffffffffffffffffffffffffffffffffffffffffffff038211156158e8576158e7615a9a565b5b828201905092915050565b60006158fe8261598b565b91506159098361598b565b92508282101561591c5761591b615a9a565b5b828203905092915050565b60006159328261596b565b9050919050565b60008115159050919050565b600081905061595382615b67565b919050565b600081905061596682615b7b565b919050565b600073ffffffffffffffffffffffffffffffffffffffff82169050919050565b6000819050919050565b60006159a0826159a7565b9050919050565b60006159b28261596b565b9050919050565b60006159c482615945565b9050919050565b60006159d682615958565b9050919050565b82818337600083830152505050565b60005b83811015615a0a5780820151818401526020810190506159ef565b83811115615a19576000848401525b50505050565b60006002820490506001821680615a3757607f821691505b60208210811415615a4b57615a4a615af8565b5b50919050565b6000615a5c8261598b565b91507fffffffffffffffffffffffffffffffffffffffffffffffffffffffffffffffff821415615a8f57615a8e615a9a565b5b600182019050919050565b7f4e487b7100000000000000000000000000000000000000000000000000000000600052601160045260246000fd5b7f4e487b7100000000000000000000000000000000000000000000000000000000600052602160045260246000fd5b7f4e487b7100000000000000000000000000000000000000000000000000000000600052602260045260246000fd5b7f4e487b7100000000000000000000000000000000000000000000000000000000600052604160045260246000fd5b6000601f19601f8301169050919050565b60028110615b7857615b77615ac9565b5b50565b60058110615b8c57615b8b615ac9565b5b50565b615b9881615927565b8114615ba357600080fd5b50565b615baf81615939565b8114615bba57600080fd5b50565b60028110615bca57600080fd5b50565b60078110615bda57600080fd5b50565b615be68161598b565b8114615bf157600080fd5b5056fea26469706673582212204c444f0cd948a8615810ecafb7cd4bfa04242c021f0d57aa09e1c1393078c11364736f6c63430008000033",
  "immutableReferences": {},
  "source": "// SPDX-License-Identifier: MIT\r\npragma solidity >=0.8.0 <0.9.0;\r\n\r\nimport \"./UserRegistry.sol\";\r\n\r\ncontract ProductLedger {\r\n    UserRegistry public userRegistry;\r\n    uint256 public productCounter;\r\n\r\n    enum FarmingPractice { Inorganic, Organic }\r\n    enum ProductStage { Sown, Harvested, InTransit, AtVendor, Sold }\r\n\r\n    struct ProductCore {\r\n        uint256 id;\r\n        address farmer;\r\n        uint256 sowingDate;\r\n        uint256 harvestDate;\r\n        uint256 quantity;\r\n        FarmingPractice practice;\r\n        bool isVerified;\r\n        ProductStage stage;\r\n        address currentOwner;\r\n        address designatedVendor;\r\n        uint256 farmerSalePrice;\r\n        uint256 vendorSalePrice;\r\n    }\r\n\r\n    struct ProductMetadata {\r\n        string name;\r\n        string unit;\r\n        string location;\r\n    }\r\n\r\n    struct TraceEvent {\r\n        ProductStage stage;\r\n        address actor;\r\n        uint256 timestamp;\r\n        uint256 price; // Price at this stage (e.g., sale price to next owner)\r\n    }\r\n\r\n    mapping(uint256 => ProductCore) public productCores;\r\n    mapping(uint256 => ProductMetadata) public productMetadata;\r\n    mapping(uint256 => TraceEvent[]) public history;\r\n    mapping(address => uint256[]) public verifiedProducts;\r\n    mapping(address => uint256[]) public productIdsByFarmer;\r\n\r\n    event ProductSown(uint256 indexed id, string name, address indexed farmer);\r\n    event ProductHarvested(uint256 indexed id);\r\n    event StageUpdated(uint256 indexed id, ProductStage newStage, address indexed newOwner, uint256 price);\r\n    event ProductVerified(uint256 indexed id, address indexed verifier);\r\n    event TransferInitiated(uint256 indexed id, address indexed from, address indexed to, uint256 price);\r\n    event TransferConfirmed(uint256 indexed id, address indexed newOwner);\r\n\r\n    uint256 public requiredVerifications;\r\n    mapping(uint256 => uint256) public verificationCount;\r\n    mapping(uint256 => mapping(address => bool)) public hasVerified;\r\n\r\n    constructor(address _userRegistryAddress) {\r\n        userRegistry = UserRegistry(_userRegistryAddress);\r\n        requiredVerifications = 3;\r\n    }\r\n\r\n    function addSownProduct(string memory _name, FarmingPractice _practice, string memory _location, uint256 _quantity, string memory _unit) public {\r\n        require(userRegistry.getUser(msg.sender).role == UserRegistry.UserRole.Farmer, \"Only farmers can add products.\");\r\n\r\n        productCounter++;\r\n\r\n        productCores[productCounter] = ProductCore(\r\n            productCounter,\r\n            msg.sender,\r\n            block.timestamp,\r\n            0,\r\n            _quantity,\r\n            _practice,\r\n            false,\r\n            ProductStage.Sown,\r\n            msg.sender,\r\n            address(0),\r\n            0,\r\n            0\r\n        );\r\n\r\n        productMetadata[productCounter] = ProductMetadata(\r\n            _name,\r\n            _unit,\r\n            _location\r\n        );\r\n\r\n        productIdsByFarmer[msg.sender].push(productCounter);\r\n        // MODIFIED: Pass 0 as the price for the Sown event.\r\n        _addHistory(productCounter, ProductStage.Sown, 0);\r\n        //_addHistory(productCounter, ProductStage.Sown);\r\n        emit ProductSown(productCounter, _name, msg.sender);\r\n    }\r\n\r\n    function updateToHarvested(uint256 _id) public {\r\n        ProductCore storage core = productCores[_id];\r\n        require(core.farmer == msg.sender, \"Only the original farmer can log harvest.\");\r\n        require(core.stage == ProductStage.Sown, \"Product must be in Sown stage.\");\r\n\r\n        core.stage = ProductStage.Harvested;\r\n        core.harvestDate = block.timestamp;\r\n\r\n        _addHistory(_id, ProductStage.Harvested, 0);\r\n        emit ProductHarvested(_id);\r\n    }\r\n\r\n    // MODIFIED: This function can now be called by a Farmer OR a Vendor.\r\n    function transferProductToVendor(uint256 _id, address _vendorAddress, uint256 _price) public {\r\n        ProductCore storage core = productCores[_id];\r\n        require(core.currentOwner == msg.sender, \"You are not the current owner.\");\r\n        // MODIFIED: A product can be transferred if it's Harvested (from farmer) or already AtVendor (from a previous vendor).\r\n        require(core.stage == ProductStage.Harvested || core.stage == ProductStage.AtVendor, \"Product must be Harvested or AtVendor to be transferred.\");\r\n        require(userRegistry.getUser(_vendorAddress).role == UserRegistry.UserRole.Vendor, \"Receiver must be a registered vendor.\");\r\n        require(_price > 0, \"Price must be greater than zero.\");\r\n\r\n        core.stage = ProductStage.InTransit;\r\n        core.designatedVendor = _vendorAddress;\r\n        \r\n        // We only set the farmerSalePrice if the original farmer is the one selling.\r\n        if (core.farmer == msg.sender) {\r\n            core.farmerSalePrice = _price;\r\n        }\r\n\r\n        // MODIFIED: Pass the transaction price to be recorded in the history.\r\n        _addHistory(_id, ProductStage.InTransit, _price);\r\n        emit TransferInitiated(_id, msg.sender, _vendorAddress, _price);\r\n    }\r\n\r\n    function confirmReceipt(uint256 _id) public {\r\n        ProductCore storage core = productCores[_id];\r\n        require(core.stage == ProductStage.InTransit, \"Product is not in transit.\");\r\n        require(core.designatedVendor == msg.sender, \"You are not the designated recipient.\");\r\n\r\n        core.stage = ProductStage.AtVendor;\r\n        core.currentOwner = msg.sender;\r\n        core.designatedVendor = address(0);\r\n\r\n        _addHistory(_id, ProductStage.AtVendor, 0);\r\n        emit TransferConfirmed(_id, msg.sender);\r\n    }\r\n\r\n    function updateStageToSold(uint256 _id, uint256 _price) public {\r\n        ProductCore storage core = productCores[_id];\r\n        require(userRegistry.getUser(msg.sender).role == UserRegistry.UserRole.Vendor, \"Only vendors can sell products.\");\r\n        require(core.currentOwner == msg.sender, \"You are not the current owner.\");\r\n        require(_price > core.farmerSalePrice, \"Sale price must be higher than purchase price.\");\r\n\r\n        core.stage = ProductStage.Sold;\r\n        core.vendorSalePrice = _price;\r\n        _addHistory(_id, ProductStage.Sold, _price);\r\n        emit StageUpdated(_id, ProductStage.Sold, msg.sender, _price);\r\n    }\r\n\r\n    function verifyProduct(uint256 _id) public {\r\n        require(userRegistry.getUser(msg.sender).role == UserRegistry.UserRole.Verifier, \"Only verifiers can certify products.\");\r\n        require(!hasVerified[_id][msg.sender], \"You have already verified this product.\");\r\n        hasVerified[_id][msg.sender] = true;\r\n        verificationCount[_id]++;\r\n        if (verificationCount[_id] >= requiredVerifications) {\r\n            productCores[_id].isVerified = true;\r\n        }\r\n        emit ProductVerified(_id, msg.sender);\r\n    }\r\n\r\n    // MODIFIED: The internal function now accepts a price.\r\n    function _addHistory(uint256 _id, ProductStage _stage, uint256 _price) internal {\r\n        history[_id].push(TraceEvent({\r\n            stage: _stage,\r\n            actor: msg.sender,\r\n            timestamp: block.timestamp,\r\n            price: _price\r\n        }));\r\n    }\r\n\r\n    function getProductCore(uint256 _id) public view returns (ProductCore memory) {\r\n        return productCores[_id];\r\n    }\r\n\r\n    function getProductMetadata(uint256 _id) public view returns (ProductMetadata memory) {\r\n        return productMetadata[_id];\r\n    }\r\n\r\n    function getProductDetails(uint256 _id) public view returns (ProductCore memory, ProductMetadata memory) {\r\n        return (productCores[_id], productMetadata[_id]);\r\n    }\r\n\r\n    function getProductHistory(uint256 _id) public view returns (TraceEvent[] memory) {\r\n        return history[_id];\r\n    }\r\n\r\n    function getProductIdsByFarmer(address _farmer) public view returns (uint256[] memory) {\r\n        return productIdsByFarmer[_farmer];\r\n    }\r\n\r\n    function getProductsByIds(uint256[] memory _ids) public view returns (ProductCore[] memory, ProductMetadata[] memory) {\r\n        ProductCore[] memory cores = new ProductCore[](_ids.length);\r\n        ProductMetadata[] memory metadata = new ProductMetadata[](_ids.length);\r\n        for (uint i = 0; i < _ids.length; i++) {\r\n            cores[i] = productCores[_ids[i]];\r\n            metadata[i] = productMetadata[_ids[i]];\r\n        }\r\n        return (cores, metadata);\r\n    }\r\n\r\n    function getAllProductsForVerifier() public view returns (\r\n        ProductCore[] memory cores_,\r\n        ProductMetadata[] memory metadata_,\r\n        uint256[] memory verificationCounts_,\r\n        bool[] memory userHasVerified_\r\n    ) {\r\n        uint256 count = productCounter;\r\n        cores_ = new ProductCore[](count);\r\n        metadata_ = new ProductMetadata[](count);\r\n        verificationCounts_ = new uint256[](count);\r\n        userHasVerified_ = new bool[](count);\r\n\r\n        for (uint i = 1; i <= count; i++) {\r\n            cores_[i-1] = productCores[i];\r\n            metadata_[i-1] = productMetadata[i];\r\n            verificationCounts_[i-1] = verificationCount[i];\r\n            userHasVerified_[i-1] = hasVerified[i][msg.sender];\r\n        }\r\n        return (cores_, metadata_, verificationCounts_, userHasVerified_);\r\n    }\r\n\r\n    function getAllProducts() public view returns (ProductCore[] memory, ProductMetadata[] memory) {\r\n        uint256 count = productCounter;\r\n        ProductCore[] memory cores = new ProductCore[](count);\r\n        ProductMetadata[] memory metadata = new ProductMetadata[](count);\r\n\r\n        for (uint i = 0; i < count; i++) {\r\n            cores[i] = productCores[i + 1];\r\n            metadata[i] = productMetadata[i + 1];\r\n        }\r\n\r\n        return (cores, metadata);\r\n    }\r\n}",
  "sourcePath": "D:\\VIT\\Fall 25-26\\Project-1\\Modified\\New folder\\contracts\\ProductLedger.sol",
  "compiler": {
    "name": "solc",
    "version": "0.8.0+commit.c7dfd78e.Emscripten.clang"
  },
  "schemaVersion": "3.4.16",
  "updatedAt": "2025-09-15T07:57:57.485Z",
  "devdoc": {
    "kind": "dev",
    "methods": {},
    "version": 1
  },
  "userdoc": {
    "kind": "user",
    "methods": {},
    "version": 1
  }
}