{
  "contractName": "UserRegistry",
  "abi": [
    {
      "inputs": [],
      "stateMutability": "nonpayable",
      "type": "constructor"
    },
    {
      "anonymous": false,
      "inputs": [
        {
          "indexed": true,
          "internalType": "address",
          "name": "userAddress",
          "type": "address"
        },
        {
          "indexed": false,
          "internalType": "string",
          "name": "name",
          "type": "string"
        },
        {
          "indexed": false,
          "internalType": "enum UserRegistry.UserRole",
          "name": "role",
          "type": "uint8"
        }
      ],
      "name": "UserRegistered",
      "type": "event"
    },
    {
      "inputs": [
        {
          "internalType": "uint256",
          "name": "",
          "type": "uint256"
        }
      ],
      "name": "bankAddresses",
      "outputs": [
        {
          "internalType": "address",
          "name": "",
          "type": "address"
        }
      ],
      "stateMutability": "view",
      "type": "function"
    },
    {
      "inputs": [
        {
          "internalType": "uint256",
          "name": "",
          "type": "uint256"
        }
      ],
      "name": "farmerAddresses",
      "outputs": [
        {
          "internalType": "address",
          "name": "",
          "type": "address"
        }
      ],
      "stateMutability": "view",
      "type": "function"
    },
    {
      "inputs": [
        {
          "internalType": "uint256",
          "name": "",
          "type": "uint256"
        }
      ],
      "name": "insuranceProviderAddresses",
      "outputs": [
        {
          "internalType": "address",
          "name": "",
          "type": "address"
        }
      ],
      "stateMutability": "view",
      "type": "function"
    },
    {
      "inputs": [],
      "name": "owner",
      "outputs": [
        {
          "internalType": "address",
          "name": "",
          "type": "address"
        }
      ],
      "stateMutability": "view",
      "type": "function"
    },
    {
      "inputs": [
        {
          "internalType": "address",
          "name": "",
          "type": "address"
        }
      ],
      "name": "users",
      "outputs": [
        {
          "internalType": "address",
          "name": "userAddress",
          "type": "address"
        },
        {
          "internalType": "string",
          "name": "name",
          "type": "string"
        },
        {
          "internalType": "enum UserRegistry.UserRole",
          "name": "role",
          "type": "uint8"
        },
        {
          "internalType": "bool",
          "name": "isRegistered",
          "type": "bool"
        },
        {
          "internalType": "uint256",
          "name": "landholdingSize",
          "type": "uint256"
        }
      ],
      "stateMutability": "view",
      "type": "function"
    },
    {
      "inputs": [
        {
          "internalType": "uint256",
          "name": "",
          "type": "uint256"
        }
      ],
      "name": "verifierAddresses",
      "outputs": [
        {
          "internalType": "address",
          "name": "",
          "type": "address"
        }
      ],
      "stateMutability": "view",
      "type": "function"
    },
    {
      "inputs": [
        {
          "internalType": "string",
          "name": "_name",
          "type": "string"
        },
        {
          "internalType": "uint256",
          "name": "_landSize",
          "type": "uint256"
        }
      ],
      "name": "registerAsFarmer",
      "outputs": [],
      "stateMutability": "nonpayable",
      "type": "function"
    },
    {
      "inputs": [
        {
          "internalType": "string",
          "name": "_name",
          "type": "string"
        }
      ],
      "name": "registerAsVendor",
      "outputs": [],
      "stateMutability": "nonpayable",
      "type": "function"
    },
    {
      "inputs": [
        {
          "internalType": "string",
          "name": "_name",
          "type": "string"
        }
      ],
      "name": "registerAsConsumer",
      "outputs": [],
      "stateMutability": "nonpayable",
      "type": "function"
    },
    {
      "inputs": [
        {
          "internalType": "address",
          "name": "_bankAddress",
          "type": "address"
        },
        {
          "internalType": "string",
          "name": "_name",
          "type": "string"
        }
      ],
      "name": "addBank",
      "outputs": [],
      "stateMutability": "nonpayable",
      "type": "function"
    },
    {
      "inputs": [
        {
          "internalType": "address",
          "name": "_insuranceAddress",
          "type": "address"
        },
        {
          "internalType": "string",
          "name": "_name",
          "type": "string"
        }
      ],
      "name": "addInsurance",
      "outputs": [],
      "stateMutability": "nonpayable",
      "type": "function"
    },
    {
      "inputs": [
        {
          "internalType": "address",
          "name": "_verifierAddress",
          "type": "address"
        },
        {
          "internalType": "string",
          "name": "_name",
          "type": "string"
        }
      ],
      "name": "addVerifier",
      "outputs": [],
      "stateMutability": "nonpayable",
      "type": "function"
    },
    {
      "inputs": [
        {
          "internalType": "address",
          "name": "_userAddress",
          "type": "address"
        }
      ],
      "name": "getUser",
      "outputs": [
        {
          "components": [
            {
              "internalType": "address",
              "name": "userAddress",
              "type": "address"
            },
            {
              "internalType": "string",
              "name": "name",
              "type": "string"
            },
            {
              "internalType": "enum UserRegistry.UserRole",
              "name": "role",
              "type": "uint8"
            },
            {
              "internalType": "bool",
              "name": "isRegistered",
              "type": "bool"
            },
            {
              "internalType": "uint256",
              "name": "landholdingSize",
              "type": "uint256"
            }
          ],
          "internalType": "struct UserRegistry.User",
          "name": "",
          "type": "tuple"
        }
      ],
      "stateMutability": "view",
      "type": "function"
    },
    {
      "inputs": [],
      "name": "getBankAddresses",
      "outputs": [
        {
          "internalType": "address[]",
          "name": "",
          "type": "address[]"
        }
      ],
      "stateMutability": "view",
      "type": "function"
    },
    {
      "inputs": [],
      "name": "getInsuranceProviderAddresses",
      "outputs": [
        {
          "internalType": "address[]",
          "name": "",
          "type": "address[]"
        }
      ],
      "stateMutability": "view",
      "type": "function"
    },
    {
      "inputs": [
        {
          "internalType": "address[]",
          "name": "_addresses",
          "type": "address[]"
        }
      ],
      "name": "getUsersByAddresses",
      "outputs": [
        {
          "components": [
            {
              "internalType": "address",
              "name": "userAddress",
              "type": "address"
            },
            {
              "internalType": "string",
              "name": "name",
              "type": "string"
            },
            {
              "internalType": "enum UserRegistry.UserRole",
              "name": "role",
              "type": "uint8"
            },
            {
              "internalType": "bool",
              "name": "isRegistered",
              "type": "bool"
            },
            {
              "internalType": "uint256",
              "name": "landholdingSize",
              "type": "uint256"
            }
          ],
          "internalType": "struct UserRegistry.User[]",
          "name": "",
          "type": "tuple[]"
        }
      ],
      "stateMutability": "view",
      "type": "function"
    }
  ],
  "bytecode": "0x608060405234801561001057600080fd5b50336000806101000a81548173ffffffffffffffffffffffffffffffffffffffff021916908373ffffffffffffffffffffffffffffffffffffffff16021790555061294d806100606000396000f3fe608060405234801561001057600080fd5b50600436106101005760003560e01c806374bccc3c116100975780638ee94978116100665780638ee94978146102bd578063a87430ba146102db578063b9cc16141461030f578063d95879ba1461033f57610100565b806374bccc3c14610223578063807121fc146102535780638c438908146102835780638da5cb5b1461029f57610100565b8063330c345f116100d3578063330c345f146101895780636de05398146101a75780636f77926b146101d75780637340792a1461020757610100565b80630e0be39c14610105578063163e83b01461013557806326b5440a14610151578063294285cd1461016d575b600080fd5b61011f600480360381019061011a9190611e47565b61035b565b60405161012c919061247e565b60405180910390f35b61014f600480360381019061014a9190611e88565b610667565b005b61016b60048036038101906101669190611df3565b610677565b005b61018760048036038101906101829190611ec9565b6109ed565b005b610191610a40565b60405161019e919061245c565b60405180910390f35b6101c160048036038101906101bc9190611f1d565b610ace565b6040516101ce91906123e7565b60405180910390f35b6101f160048036038101906101ec9190611dca565b610b0d565b6040516101fe9190612590565b60405180910390f35b610221600480360381019061021c9190611df3565b610cfa565b005b61023d60048036038101906102389190611f1d565b61106f565b60405161024a91906123e7565b60405180910390f35b61026d60048036038101906102689190611f1d565b6110ae565b60405161027a91906123e7565b60405180910390f35b61029d60048036038101906102989190611df3565b6110ed565b005b6102a7611463565b6040516102b491906123e7565b60405180910390f35b6102c5611487565b6040516102d2919061245c565b60405180910390f35b6102f560048036038101906102f09190611dca565b611515565b604051610306959493929190612402565b60405180910390f35b61032960048036038101906103249190611f1d565b61160d565b60405161033691906123e7565b60405180910390f35b61035960048036038101906103549190611e88565b61164c565b005b60606000825167ffffffffffffffff8111156103a0577f4e487b7100000000000000000000000000000000000000000000000000000000600052604160045260246000fd5b6040519080825280602002602001820160405280156103d957816020015b6103c6611b80565b8152602001906001900390816103be5790505b50905060005b835181101561065d5760016000858381518110610425577f4e487b7100000000000000000000000000000000000000000000000000000000600052603260045260246000fd5b602002602001015173ffffffffffffffffffffffffffffffffffffffff1673ffffffffffffffffffffffffffffffffffffffff1681526020019081526020016000206040518060a00160405290816000820160009054906101000a900473ffffffffffffffffffffffffffffffffffffffff1673ffffffffffffffffffffffffffffffffffffffff1673ffffffffffffffffffffffffffffffffffffffff1681526020016001820180546104d89061278d565b80601f01602080910402602001604051908101604052809291908181526020018280546105049061278d565b80156105515780601f1061052657610100808354040283529160200191610551565b820191906000526020600020905b81548152906001019060200180831161053457829003601f168201915b505050505081526020016002820160009054906101000a900460ff1660068111156105a5577f4e487b7100000000000000000000000000000000000000000000000000000000600052602160045260246000fd5b60068111156105dd577f4e487b7100000000000000000000000000000000000000000000000000000000600052602160045260246000fd5b81526020016002820160019054906101000a900460ff1615151515815260200160038201548152505082828151811061063f577f4e487b7100000000000000000000000000000000000000000000000000000000600052603260045260246000fd5b60200260200101819052508080610655906127bf565b9150506103df565b5080915050919050565b610674816003600061165c565b50565b60008054906101000a900473ffffffffffffffffffffffffffffffffffffffff1673ffffffffffffffffffffffffffffffffffffffff163373ffffffffffffffffffffffffffffffffffffffff1614610705576040517f08c379a00000000000000000000000000000000000000000000000000000000081526004016106fc906124d0565b60405180910390fd5b600160008373ffffffffffffffffffffffffffffffffffffffff1673ffffffffffffffffffffffffffffffffffffffff16815260200190815260200160002060020160019054906101000a900460ff1615610795576040517f08c379a000000000000000000000000000000000000000000000000000000000815260040161078c90612510565b60405180910390fd5b6040518060a001604052808373ffffffffffffffffffffffffffffffffffffffff168152602001828152602001600560068111156107fc577f4e487b7100000000000000000000000000000000000000000000000000000000600052602160045260246000fd5b81526020016001151581526020016000815250600160008473ffffffffffffffffffffffffffffffffffffffff1673ffffffffffffffffffffffffffffffffffffffff16815260200190815260200160002060008201518160000160006101000a81548173ffffffffffffffffffffffffffffffffffffffff021916908373ffffffffffffffffffffffffffffffffffffffff16021790555060208201518160010190805190602001906108b1929190611bff565b5060408201518160020160006101000a81548160ff02191690836006811115610903577f4e487b7100000000000000000000000000000000000000000000000000000000600052602160045260246000fd5b021790555060608201518160020160016101000a81548160ff021916908315150217905550608082015181600301559050506004829080600181540180825580915050600190039060005260206000200160009091909190916101000a81548173ffffffffffffffffffffffffffffffffffffffff021916908373ffffffffffffffffffffffffffffffffffffffff1602179055508173ffffffffffffffffffffffffffffffffffffffff167fc2e5d5da58bd71d1a2d14cdef02a4256d971b728088f8190d067ccfbae3bd73e8260056040516109e19291906124a0565b60405180910390a25050565b60008111610a30576040517f08c379a0000000000000000000000000000000000000000000000000000000008152600401610a27906124f0565b60405180910390fd5b610a3c8260018361165c565b5050565b60606004805480602002602001604051908101604052809291908181526020018280548015610ac457602002820191906000526020600020905b8160009054906101000a900473ffffffffffffffffffffffffffffffffffffffff1673ffffffffffffffffffffffffffffffffffffffff1681526020019060010190808311610a7a575b5050505050905090565b60058181548110610ade57600080fd5b906000526020600020016000915054906101000a900473ffffffffffffffffffffffffffffffffffffffff1681565b610b15611b80565b600160008373ffffffffffffffffffffffffffffffffffffffff1673ffffffffffffffffffffffffffffffffffffffff1681526020019081526020016000206040518060a00160405290816000820160009054906101000a900473ffffffffffffffffffffffffffffffffffffffff1673ffffffffffffffffffffffffffffffffffffffff1673ffffffffffffffffffffffffffffffffffffffff168152602001600182018054610bc59061278d565b80601f0160208091040260200160405190810160405280929190818152602001828054610bf19061278d565b8015610c3e5780601f10610c1357610100808354040283529160200191610c3e565b820191906000526020600020905b815481529060010190602001808311610c2157829003601f168201915b505050505081526020016002820160009054906101000a900460ff166006811115610c92577f4e487b7100000000000000000000000000000000000000000000000000000000600052602160045260246000fd5b6006811115610cca577f4e487b7100000000000000000000000000000000000000000000000000000000600052602160045260246000fd5b81526020016002820160019054906101000a900460ff161515151581526020016003820154815250509050919050565b60008054906101000a900473ffffffffffffffffffffffffffffffffffffffff1673ffffffffffffffffffffffffffffffffffffffff163373ffffffffffffffffffffffffffffffffffffffff1614610d88576040517f08c379a0000000000000000000000000000000000000000000000000000000008152600401610d7f906124d0565b60405180910390fd5b600160008373ffffffffffffffffffffffffffffffffffffffff1673ffffffffffffffffffffffffffffffffffffffff16815260200190815260200160002060020160019054906101000a900460ff1615610e18576040517f08c379a0000000000000000000000000000000000000000000000000000000008152600401610e0f90612530565b60405180910390fd5b6040518060a001604052808373ffffffffffffffffffffffffffffffffffffffff168152602001828152602001600680811115610e7e577f4e487b7100000000000000000000000000000000000000000000000000000000600052602160045260246000fd5b81526020016001151581526020016000815250600160008473ffffffffffffffffffffffffffffffffffffffff1673ffffffffffffffffffffffffffffffffffffffff16815260200190815260200160002060008201518160000160006101000a81548173ffffffffffffffffffffffffffffffffffffffff021916908373ffffffffffffffffffffffffffffffffffffffff1602179055506020820151816001019080519060200190610f33929190611bff565b5060408201518160020160006101000a81548160ff02191690836006811115610f85577f4e487b7100000000000000000000000000000000000000000000000000000000600052602160045260246000fd5b021790555060608201518160020160016101000a81548160ff021916908315150217905550608082015181600301559050506005829080600181540180825580915050600190039060005260206000200160009091909190916101000a81548173ffffffffffffffffffffffffffffffffffffffff021916908373ffffffffffffffffffffffffffffffffffffffff1602179055508173ffffffffffffffffffffffffffffffffffffffff167fc2e5d5da58bd71d1a2d14cdef02a4256d971b728088f8190d067ccfbae3bd73e8260066040516110639291906124a0565b60405180910390a25050565b6003818154811061107f57600080fd5b906000526020600020016000915054906101000a900473ffffffffffffffffffffffffffffffffffffffff1681565b600481815481106110be57600080fd5b906000526020600020016000915054906101000a900473ffffffffffffffffffffffffffffffffffffffff1681565b60008054906101000a900473ffffffffffffffffffffffffffffffffffffffff1673ffffffffffffffffffffffffffffffffffffffff163373ffffffffffffffffffffffffffffffffffffffff161461117b576040517f08c379a0000000000000000000000000000000000000000000000000000000008152600401611172906124d0565b60405180910390fd5b600160008373ffffffffffffffffffffffffffffffffffffffff1673ffffffffffffffffffffffffffffffffffffffff16815260200190815260200160002060020160019054906101000a900460ff161561120b576040517f08c379a000000000000000000000000000000000000000000000000000000000815260040161120290612570565b60405180910390fd5b6040518060a001604052808373ffffffffffffffffffffffffffffffffffffffff16815260200182815260200160046006811115611272577f4e487b7100000000000000000000000000000000000000000000000000000000600052602160045260246000fd5b81526020016001151581526020016000815250600160008473ffffffffffffffffffffffffffffffffffffffff1673ffffffffffffffffffffffffffffffffffffffff16815260200190815260200160002060008201518160000160006101000a81548173ffffffffffffffffffffffffffffffffffffffff021916908373ffffffffffffffffffffffffffffffffffffffff1602179055506020820151816001019080519060200190611327929190611bff565b5060408201518160020160006101000a81548160ff02191690836006811115611379577f4e487b7100000000000000000000000000000000000000000000000000000000600052602160045260246000fd5b021790555060608201518160020160016101000a81548160ff021916908315150217905550608082015181600301559050506003829080600181540180825580915050600190039060005260206000200160009091909190916101000a81548173ffffffffffffffffffffffffffffffffffffffff021916908373ffffffffffffffffffffffffffffffffffffffff1602179055508173ffffffffffffffffffffffffffffffffffffffff167fc2e5d5da58bd71d1a2d14cdef02a4256d971b728088f8190d067ccfbae3bd73e8260046040516114579291906124a0565b60405180910390a25050565b60008054906101000a900473ffffffffffffffffffffffffffffffffffffffff1681565b6060600380548060200260200160405190810160405280929190818152602001828054801561150b57602002820191906000526020600020905b8160009054906101000a900473ffffffffffffffffffffffffffffffffffffffff1673ffffffffffffffffffffffffffffffffffffffff16815260200190600101908083116114c1575b5050505050905090565b60016020528060005260406000206000915090508060000160009054906101000a900473ffffffffffffffffffffffffffffffffffffffff169080600101805461155e9061278d565b80601f016020809104026020016040519081016040528092919081815260200182805461158a9061278d565b80156115d75780601f106115ac576101008083540402835291602001916115d7565b820191906000526020600020905b8154815290600101906020018083116115ba57829003601f168201915b5050505050908060020160009054906101000a900460ff16908060020160019054906101000a900460ff16908060030154905085565b6002818154811061161d57600080fd5b906000526020600020016000915054906101000a900473ffffffffffffffffffffffffffffffffffffffff1681565b611659816002600061165c565b50565b600160003373ffffffffffffffffffffffffffffffffffffffff1673ffffffffffffffffffffffffffffffffffffffff16815260200190815260200160002060020160019054906101000a900460ff16156116ec576040517f08c379a00000000000000000000000000000000000000000000000000000000081526004016116e390612550565b60405180910390fd5b6040518060a001604052803373ffffffffffffffffffffffffffffffffffffffff168152602001848152602001836006811115611752577f4e487b7100000000000000000000000000000000000000000000000000000000600052602160045260246000fd5b815260200160011515815260200182815250600160003373ffffffffffffffffffffffffffffffffffffffff1673ffffffffffffffffffffffffffffffffffffffff16815260200190815260200160002060008201518160000160006101000a81548173ffffffffffffffffffffffffffffffffffffffff021916908373ffffffffffffffffffffffffffffffffffffffff1602179055506020820151816001019080519060200190611806929190611bff565b5060408201518160020160006101000a81548160ff02191690836006811115611858577f4e487b7100000000000000000000000000000000000000000000000000000000600052602160045260246000fd5b021790555060608201518160020160016101000a81548160ff02191690831515021790555060808201518160030155905050600160068111156118c4577f4e487b7100000000000000000000000000000000000000000000000000000000600052602160045260246000fd5b8260068111156118fd577f4e487b7100000000000000000000000000000000000000000000000000000000600052602160045260246000fd5b141561196b576002339080600181540180825580915050600190039060005260206000200160009091909190916101000a81548173ffffffffffffffffffffffffffffffffffffffff021916908373ffffffffffffffffffffffffffffffffffffffff160217905550611b2b565b600460068111156119a5577f4e487b7100000000000000000000000000000000000000000000000000000000600052602160045260246000fd5b8260068111156119de577f4e487b7100000000000000000000000000000000000000000000000000000000600052602160045260246000fd5b1415611a4c576003339080600181540180825580915050600190039060005260206000200160009091909190916101000a81548173ffffffffffffffffffffffffffffffffffffffff021916908373ffffffffffffffffffffffffffffffffffffffff160217905550611b2a565b60056006811115611a86577f4e487b7100000000000000000000000000000000000000000000000000000000600052602160045260246000fd5b826006811115611abf577f4e487b7100000000000000000000000000000000000000000000000000000000600052602160045260246000fd5b1415611b29576004339080600181540180825580915050600190039060005260206000200160009091909190916101000a81548173ffffffffffffffffffffffffffffffffffffffff021916908373ffffffffffffffffffffffffffffffffffffffff1602179055505b5b5b3373ffffffffffffffffffffffffffffffffffffffff167fc2e5d5da58bd71d1a2d14cdef02a4256d971b728088f8190d067ccfbae3bd73e8484604051611b739291906124a0565b60405180910390a2505050565b6040518060a00160405280600073ffffffffffffffffffffffffffffffffffffffff1681526020016060815260200160006006811115611be9577f4e487b7100000000000000000000000000000000000000000000000000000000600052602160045260246000fd5b8152602001600015158152602001600081525090565b828054611c0b9061278d565b90600052602060002090601f016020900481019282611c2d5760008555611c74565b82601f10611c4657805160ff1916838001178555611c74565b82800160010185558215611c74579182015b82811115611c73578251825591602001919060010190611c58565b5b509050611c819190611c85565b5090565b5b80821115611c9e576000816000905550600101611c86565b5090565b6000611cb5611cb0846125e3565b6125b2565b90508083825260208201905082856020860282011115611cd457600080fd5b60005b85811015611d045781611cea8882611d4c565b845260208401935060208301925050600181019050611cd7565b5050509392505050565b6000611d21611d1c8461260f565b6125b2565b905082815260208101848484011115611d3957600080fd5b611d4484828561274b565b509392505050565b600081359050611d5b816128e9565b92915050565b600082601f830112611d7257600080fd5b8135611d82848260208601611ca2565b91505092915050565b600082601f830112611d9c57600080fd5b8135611dac848260208601611d0e565b91505092915050565b600081359050611dc481612900565b92915050565b600060208284031215611ddc57600080fd5b6000611dea84828501611d4c565b91505092915050565b60008060408385031215611e0657600080fd5b6000611e1485828601611d4c565b925050602083013567ffffffffffffffff811115611e3157600080fd5b611e3d85828601611d8b565b9150509250929050565b600060208284031215611e5957600080fd5b600082013567ffffffffffffffff811115611e7357600080fd5b611e7f84828501611d61565b91505092915050565b600060208284031215611e9a57600080fd5b600082013567ffffffffffffffff811115611eb457600080fd5b611ec084828501611d8b565b91505092915050565b60008060408385031215611edc57600080fd5b600083013567ffffffffffffffff811115611ef657600080fd5b611f0285828601611d8b565b9250506020611f1385828601611db5565b9150509250929050565b600060208284031215611f2f57600080fd5b6000611f3d84828501611db5565b91505092915050565b6000611f528383611f72565b60208301905092915050565b6000611f6a83836122dd565b905092915050565b611f7b816126de565b82525050565b611f8a816126de565b82525050565b6000611f9b8261265f565b611fa5818561269a565b9350611fb08361263f565b8060005b83811015611fe1578151611fc88882611f46565b9750611fd383612680565b925050600181019050611fb4565b5085935050505092915050565b6000611ff98261266a565b61200381856126ab565b9350836020820285016120158561264f565b8060005b8581101561205157848403895281516120328582611f5e565b945061203d8361268d565b925060208a01995050600181019050612019565b50829750879550505050505092915050565b61206c816126f0565b82525050565b61207b816126f0565b82525050565b61208a81612739565b82525050565b61209981612739565b82525050565b60006120aa82612675565b6120b481856126bc565b93506120c481856020860161275a565b6120cd816128c4565b840191505092915050565b60006120e382612675565b6120ed81856126cd565b93506120fd81856020860161275a565b612106816128c4565b840191505092915050565b600061211e6025836126cd565b91507f4f6e6c7920746865206f776e65722063616e2063616c6c20746869732066756e60008301527f6374696f6e0000000000000000000000000000000000000000000000000000006020830152604082019050919050565b60006121846016836126cd565b91507f4661726d6572206d7573742068617665206c616e642e000000000000000000006000830152602082019050919050565b60006121c46024836126cd565b91507f496e737572616e636520636f2e20697320616c7265616479207265676973746560008301527f7265642e000000000000000000000000000000000000000000000000000000006020830152604082019050919050565b600061222a601f836126cd565b91507f566572696669657220697320616c726561647920726567697374657265642e006000830152602082019050919050565b600061226a601b836126cd565b91507f5573657220697320616c726561647920726567697374657265642e00000000006000830152602082019050919050565b60006122aa601b836126cd565b91507f42616e6b20697320616c726561647920726567697374657265642e00000000006000830152602082019050919050565b600060a0830160008301516122f56000860182611f72565b506020830151848203602086015261230d828261209f565b91505060408301516123226040860182612081565b5060608301516123356060860182612063565b50608083015161234860808601826123c9565b508091505092915050565b600060a08301600083015161236b6000860182611f72565b5060208301518482036020860152612383828261209f565b91505060408301516123986040860182612081565b5060608301516123ab6060860182612063565b5060808301516123be60808601826123c9565b508091505092915050565b6123d28161272f565b82525050565b6123e18161272f565b82525050565b60006020820190506123fc6000830184611f81565b92915050565b600060a0820190506124176000830188611f81565b818103602083015261242981876120d8565b90506124386040830186612090565b6124456060830185612072565b61245260808301846123d8565b9695505050505050565b600060208201905081810360008301526124768184611f90565b905092915050565b600060208201905081810360008301526124988184611fee565b905092915050565b600060408201905081810360008301526124ba81856120d8565b90506124c96020830184612090565b9392505050565b600060208201905081810360008301526124e981612111565b9050919050565b6000602082019050818103600083015261250981612177565b9050919050565b60006020820190508181036000830152612529816121b7565b9050919050565b600060208201905081810360008301526125498161221d565b9050919050565b600060208201905081810360008301526125698161225d565b9050919050565b600060208201905081810360008301526125898161229d565b9050919050565b600060208201905081810360008301526125aa8184612353565b905092915050565b6000604051905081810181811067ffffffffffffffff821117156125d9576125d8612895565b5b8060405250919050565b600067ffffffffffffffff8211156125fe576125fd612895565b5b602082029050602081019050919050565b600067ffffffffffffffff82111561262a57612629612895565b5b601f19601f8301169050602081019050919050565b6000819050602082019050919050565b6000819050602082019050919050565b600081519050919050565b600081519050919050565b600081519050919050565b6000602082019050919050565b6000602082019050919050565b600082825260208201905092915050565b600082825260208201905092915050565b600082825260208201905092915050565b600082825260208201905092915050565b60006126e98261270f565b9050919050565b60008115159050919050565b600081905061270a826128d5565b919050565b600073ffffffffffffffffffffffffffffffffffffffff82169050919050565b6000819050919050565b6000612744826126fc565b9050919050565b82818337600083830152505050565b60005b8381101561277857808201518184015260208101905061275d565b83811115612787576000848401525b50505050565b600060028204905060018216806127a557607f821691505b602082108114156127b9576127b8612866565b5b50919050565b60006127ca8261272f565b91507fffffffffffffffffffffffffffffffffffffffffffffffffffffffffffffffff8214156127fd576127fc612808565b5b600182019050919050565b7f4e487b7100000000000000000000000000000000000000000000000000000000600052601160045260246000fd5b7f4e487b7100000000000000000000000000000000000000000000000000000000600052602160045260246000fd5b7f4e487b7100000000000000000000000000000000000000000000000000000000600052602260045260246000fd5b7f4e487b7100000000000000000000000000000000000000000000000000000000600052604160045260246000fd5b6000601f19601f8301169050919050565b600781106128e6576128e5612837565b5b50565b6128f2816126de565b81146128fd57600080fd5b50565b6129098161272f565b811461291457600080fd5b5056fea2646970667358221220588870a42038a30e4cbc1446e12e0900e31fbebe8ea45fbd4964d4486d0126fd64736f6c63430008000033",
  "immutableReferences": {},
  "source": "// SPDX-License-Identifier: MIT\r\npragma solidity >=0.8.0 <0.9.0;\r\n\r\n/**\r\n * @title UserRegistry\r\n * @dev Manages user registration, roles, and key data like landholding size.\r\n */\r\ncontract UserRegistry {\r\n    address public owner;\r\n\r\n    enum UserRole { Unassigned, Farmer, Vendor, Consumer, Bank, Insurance, Verifier }\r\n\r\n    struct User {\r\n        address userAddress;\r\n        string name;\r\n        UserRole role;\r\n        bool isRegistered;\r\n        uint256 landholdingSize; // In acres or hectares\r\n    }\r\n\r\n    mapping(address => User) public users;\r\n    //address[] public userAddresses;\r\n\r\n    // --- OPTIMIZATION: Arrays to track addresses by role ---\r\n    address[] public farmerAddresses;\r\n    address[] public bankAddresses;\r\n    address[] public insuranceProviderAddresses;\r\n    // Add other role arrays as needed\r\n    //  NEW: Added for consistency\r\n    address[] public verifierAddresses;\r\n\r\n    event UserRegistered(address indexed userAddress, string name, UserRole role);\r\n\r\n    modifier onlyOwner() {\r\n        require(msg.sender == owner, \"Only the owner can call this function\");\r\n        _;\r\n    }\r\n\r\n    constructor() {\r\n        owner = msg.sender;\r\n    }\r\n\r\n    function _registerUser(string memory _name, UserRole _role, uint256 _landSize) internal {\r\n        require(!users[msg.sender].isRegistered, \"User is already registered.\");\r\n        users[msg.sender] = User(msg.sender, _name, _role, true, _landSize);\r\n        //userAddresses.push(msg.sender);\r\n        if (_role == UserRole.Farmer) {\r\n            farmerAddresses.push(msg.sender);\r\n        } else if (_role == UserRole.Bank) {\r\n            bankAddresses.push(msg.sender);\r\n        } else if (_role == UserRole.Insurance) {\r\n            insuranceProviderAddresses.push(msg.sender);\r\n        }\r\n        emit UserRegistered(msg.sender, _name, _role);\r\n    }\r\n\r\n    function registerAsFarmer(string memory _name, uint256 _landSize) public {\r\n        require(_landSize > 0, \"Farmer must have land.\");\r\n        _registerUser(_name, UserRole.Farmer, _landSize);\r\n    }\r\n\r\n    function registerAsVendor(string memory _name) public {\r\n        _registerUser(_name, UserRole.Vendor, 0);\r\n    }\r\n\r\n    function registerAsConsumer(string memory _name) public {\r\n        _registerUser(_name, UserRole.Consumer, 0);\r\n    }\r\n    \r\n    function addBank(address _bankAddress, string memory _name) public onlyOwner {\r\n        require(!users[_bankAddress].isRegistered, \"Bank is already registered.\");\r\n        users[_bankAddress] = User(_bankAddress, _name, UserRole.Bank, true, 0);\r\n        //userAddresses.push(_bankAddress);\r\n        bankAddresses.push(_bankAddress); // Correctly adds to the bank list\r\n        emit UserRegistered(_bankAddress, _name, UserRole.Bank);\r\n    }\r\n\r\n    function addInsurance(address _insuranceAddress, string memory _name) public onlyOwner {\r\n        require(!users[_insuranceAddress].isRegistered, \"Insurance co. is already registered.\");\r\n        users[_insuranceAddress] = User(_insuranceAddress, _name, UserRole.Insurance, true, 0);\r\n        //userAddresses.push(_insuranceAddress);\r\n        insuranceProviderAddresses.push(_insuranceAddress); // Correctly adds to the insurance list\r\n        emit UserRegistered(_insuranceAddress, _name, UserRole.Insurance);\r\n    }\r\n    \r\n    function addVerifier(address _verifierAddress, string memory _name) public onlyOwner {\r\n        require(!users[_verifierAddress].isRegistered, \"Verifier is already registered.\");\r\n        users[_verifierAddress] = User(_verifierAddress, _name, UserRole.Verifier, true, 0);\r\n        //userAddresses.push(_verifierAddress);\r\n        verifierAddresses.push(_verifierAddress); // Correctly adds to the verifier list\r\n        emit UserRegistered(_verifierAddress, _name, UserRole.Verifier);\r\n    }\r\n\r\n    function getUser(address _userAddress) public view returns (User memory) {\r\n        return users[_userAddress];\r\n    }\r\n\r\n    // --- OPTIMIZATION: New getter functions ---\r\n    function getBankAddresses() public view returns (address[] memory) {\r\n        return bankAddresses;\r\n    }\r\n\r\n    function getInsuranceProviderAddresses() public view returns (address[] memory) {\r\n        return insuranceProviderAddresses;\r\n    }\r\n\r\n    /**\r\n    * @dev Gets multiple User structs from an array of addresses.\r\n    * @param _addresses The array of user addresses to fetch.\r\n    * @return An array of User structs.\r\n    */\r\n    function getUsersByAddresses(address[] memory _addresses) public view returns (User[] memory) {\r\n        User[] memory result = new User[](_addresses.length);\r\n        for (uint i = 0; i < _addresses.length; i++) {\r\n            result[i] = users[_addresses[i]];\r\n        }\r\n        return result;\r\n    }\r\n}",
  "sourcePath": "D:\\VIT\\Fall 25-26\\Project-1\\Modified\\New folder\\contracts\\UserRegistry.sol",
  "compiler": {
    "name": "solc",
    "version": "0.8.0+commit.c7dfd78e.Emscripten.clang"
  },
  "schemaVersion": "3.4.16",
  "updatedAt": "2025-09-15T07:57:57.495Z",
  "devdoc": {
    "details": "Manages user registration, roles, and key data like landholding size.",
    "kind": "dev",
    "methods": {
      "getUsersByAddresses(address[])": {
        "details": "Gets multiple User structs from an array of addresses.",
        "params": {
          "_addresses": "The array of user addresses to fetch."
        },
        "returns": {
          "_0": "An array of User structs."
        }
      }
    },
    "title": "UserRegistry",
    "version": 1
  },
  "userdoc": {
    "kind": "user",
    "methods": {},
    "version": 1
  }
}