{
  "contractName": "CropInsurance",
  "abi": [
    {
      "inputs": [
        {
          "internalType": "address",
          "name": "_registryAddress",
          "type": "address"
        }
      ],
      "stateMutability": "nonpayable",
      "type": "constructor"
    },
    {
      "anonymous": false,
      "inputs": [
        {
          "indexed": true,
          "internalType": "uint256",
          "name": "policyId",
          "type": "uint256"
        }
      ],
      "name": "ClaimApproved",
      "type": "event"
    },
    {
      "anonymous": false,
      "inputs": [
        {
          "indexed": true,
          "internalType": "uint256",
          "name": "policyId",
          "type": "uint256"
        },
        {
          "indexed": true,
          "internalType": "address",
          "name": "farmer",
          "type": "address"
        }
      ],
      "name": "ClaimRequested",
      "type": "event"
    },
    {
      "anonymous": false,
      "inputs": [
        {
          "indexed": true,
          "internalType": "uint256",
          "name": "policyId",
          "type": "uint256"
        }
      ],
      "name": "PayoutCompleted",
      "type": "event"
    },
    {
      "anonymous": false,
      "inputs": [
        {
          "indexed": true,
          "internalType": "uint256",
          "name": "policyId",
          "type": "uint256"
        }
      ],
      "name": "PolicyActivated",
      "type": "event"
    },
    {
      "anonymous": false,
      "inputs": [
        {
          "indexed": true,
          "internalType": "uint256",
          "name": "policyId",
          "type": "uint256"
        }
      ],
      "name": "PolicyRejected",
      "type": "event"
    },
    {
      "anonymous": false,
      "inputs": [
        {
          "indexed": true,
          "internalType": "uint256",
          "name": "policyId",
          "type": "uint256"
        },
        {
          "indexed": true,
          "internalType": "address",
          "name": "farmer",
          "type": "address"
        },
        {
          "indexed": true,
          "internalType": "address",
          "name": "provider",
          "type": "address"
        }
      ],
      "name": "PolicyRequested",
      "type": "event"
    },
    {
      "inputs": [
        {
          "internalType": "uint256",
          "name": "",
          "type": "uint256"
        }
      ],
      "name": "policies",
      "outputs": [
        {
          "internalType": "uint256",
          "name": "id",
          "type": "uint256"
        },
        {
          "internalType": "address",
          "name": "farmer",
          "type": "address"
        },
        {
          "internalType": "address",
          "name": "insuranceProvider",
          "type": "address"
        },
        {
          "internalType": "uint256",
          "name": "productId",
          "type": "uint256"
        },
        {
          "internalType": "uint256",
          "name": "sumInsured",
          "type": "uint256"
        },
        {
          "internalType": "uint256",
          "name": "premium",
          "type": "uint256"
        },
        {
          "internalType": "enum CropInsurance.PolicyStatus",
          "name": "status",
          "type": "uint8"
        }
      ],
      "stateMutability": "view",
      "type": "function",
      "constant": true
    },
    {
      "inputs": [],
      "name": "policyCounter",
      "outputs": [
        {
          "internalType": "uint256",
          "name": "",
          "type": "uint256"
        }
      ],
      "stateMutability": "view",
      "type": "function",
      "constant": true
    },
    {
      "inputs": [
        {
          "internalType": "address",
          "name": "",
          "type": "address"
        },
        {
          "internalType": "uint256",
          "name": "",
          "type": "uint256"
        }
      ],
      "name": "policyIdsByFarmer",
      "outputs": [
        {
          "internalType": "uint256",
          "name": "",
          "type": "uint256"
        }
      ],
      "stateMutability": "view",
      "type": "function",
      "constant": true
    },
    {
      "inputs": [],
      "name": "userRegistry",
      "outputs": [
        {
          "internalType": "contract UserRegistry",
          "name": "",
          "type": "address"
        }
      ],
      "stateMutability": "view",
      "type": "function",
      "constant": true
    },
    {
      "inputs": [
        {
          "internalType": "uint256",
          "name": "_productId",
          "type": "uint256"
        },
        {
          "internalType": "uint256",
          "name": "_sumInsured",
          "type": "uint256"
        },
        {
          "internalType": "uint256",
          "name": "_premium",
          "type": "uint256"
        },
        {
          "internalType": "address",
          "name": "_insuranceProvider",
          "type": "address"
        }
      ],
      "name": "requestPolicy",
      "outputs": [],
      "stateMutability": "nonpayable",
      "type": "function"
    },
    {
      "inputs": [
        {
          "internalType": "uint256",
          "name": "_policyId",
          "type": "uint256"
        }
      ],
      "name": "approvePolicy",
      "outputs": [],
      "stateMutability": "nonpayable",
      "type": "function"
    },
    {
      "inputs": [
        {
          "internalType": "uint256",
          "name": "_policyId",
          "type": "uint256"
        }
      ],
      "name": "rejectPolicy",
      "outputs": [],
      "stateMutability": "nonpayable",
      "type": "function"
    },
    {
      "inputs": [
        {
          "internalType": "uint256",
          "name": "_policyId",
          "type": "uint256"
        }
      ],
      "name": "requestClaim",
      "outputs": [],
      "stateMutability": "nonpayable",
      "type": "function"
    },
    {
      "inputs": [
        {
          "internalType": "uint256",
          "name": "_policyId",
          "type": "uint256"
        }
      ],
      "name": "approveClaim",
      "outputs": [],
      "stateMutability": "nonpayable",
      "type": "function"
    },
    {
      "inputs": [
        {
          "internalType": "uint256",
          "name": "_policyId",
          "type": "uint256"
        }
      ],
      "name": "markAsPaid",
      "outputs": [],
      "stateMutability": "nonpayable",
      "type": "function"
    },
    {
      "inputs": [
        {
          "internalType": "address",
          "name": "_farmer",
          "type": "address"
        }
      ],
      "name": "getPolicyIdsByFarmer",
      "outputs": [
        {
          "internalType": "uint256[]",
          "name": "",
          "type": "uint256[]"
        }
      ],
      "stateMutability": "view",
      "type": "function",
      "constant": true
    },
    {
      "inputs": [
        {
          "internalType": "address",
          "name": "_farmer",
          "type": "address"
        }
      ],
      "name": "getPoliciesByFarmer",
      "outputs": [
        {
          "components": [
            {
              "internalType": "uint256",
              "name": "id",
              "type": "uint256"
            },
            {
              "internalType": "address",
              "name": "farmer",
              "type": "address"
            },
            {
              "internalType": "address",
              "name": "insuranceProvider",
              "type": "address"
            },
            {
              "internalType": "uint256",
              "name": "productId",
              "type": "uint256"
            },
            {
              "internalType": "uint256",
              "name": "sumInsured",
              "type": "uint256"
            },
            {
              "internalType": "uint256",
              "name": "premium",
              "type": "uint256"
            },
            {
              "internalType": "enum CropInsurance.PolicyStatus",
              "name": "status",
              "type": "uint8"
            }
          ],
          "internalType": "struct CropInsurance.Policy[]",
          "name": "",
          "type": "tuple[]"
        }
      ],
      "stateMutability": "view",
      "type": "function",
      "constant": true
    }
  ],
  "bytecode": "0x60806040523480156200001157600080fd5b50604051620024b9380380620024b9833981810160405281019062000037919062000095565b806000806101000a81548173ffffffffffffffffffffffffffffffffffffffff021916908373ffffffffffffffffffffffffffffffffffffffff160217905550506200010f565b6000815190506200008f81620000f5565b92915050565b600060208284031215620000a857600080fd5b6000620000b8848285016200007e565b91505092915050565b6000620000ce82620000d5565b9050919050565b600073ffffffffffffffffffffffffffffffffffffffff82169050919050565b6200010081620000c1565b81146200010c57600080fd5b50565b61239a806200011f6000396000f3fe608060405234801561001057600080fd5b50600436106100b45760003560e01c80637021cafe116100715780637021cafe146101775780637b543f1414610193578063b905a995146101c3578063d3e89483146101f3578063d52c1bea14610229578063e00b288a14610247576100b4565b80630bb03bad146100b957806346e30135146100d55780634736c1fd146100f15780635c7460d61461010d57806362dd5fec1461012b5780636a18155614610147575b600080fd5b6100d360048036038101906100ce919061194f565b610263565b005b6100ef60048036038101906100ea9190611926565b6107cc565b005b61010b60048036038101906101069190611926565b6109bd565b005b610115610bae565b6040516101229190611ed8565b60405180910390f35b61014560048036038101906101409190611926565b610bd2565b005b610161600480360381019061015c9190611880565b610dc3565b60405161016e9190611e94565b60405180910390f35b610191600480360381019061018c9190611926565b611103565b005b6101ad60048036038101906101a89190611880565b6112f4565b6040516101ba9190611eb6565b60405180910390f35b6101dd60048036038101906101d891906118a9565b61138b565b6040516101ea9190611ff3565b60405180910390f35b61020d60048036038101906102089190611926565b6113bc565b604051610220979695949392919061200e565b60405180910390f35b61023161144b565b60405161023e9190611ff3565b60405180910390f35b610261600480360381019061025c9190611926565b611451565b005b6001600681111561029d577f4e487b7100000000000000000000000000000000000000000000000000000000600052602160045260246000fd5b60008054906101000a900473ffffffffffffffffffffffffffffffffffffffff1673ffffffffffffffffffffffffffffffffffffffff16636f77926b336040518263ffffffff1660e01b81526004016102f69190611e79565b60006040518083038186803b15801561030e57600080fd5b505afa158015610322573d6000803e3d6000fd5b505050506040513d6000823e3d601f19601f8201168201806040525081019061034b91906118e5565b604001516006811115610387577f4e487b7100000000000000000000000000000000000000000000000000000000600052602160045260246000fd5b146103c7576040517f08c379a00000000000000000000000000000000000000000000000000000000081526004016103be90611f53565b60405180910390fd5b60056006811115610401577f4e487b7100000000000000000000000000000000000000000000000000000000600052602160045260246000fd5b60008054906101000a900473ffffffffffffffffffffffffffffffffffffffff1673ffffffffffffffffffffffffffffffffffffffff16636f77926b836040518263ffffffff1660e01b815260040161045a9190611e79565b60006040518083038186803b15801561047257600080fd5b505afa158015610486573d6000803e3d6000fd5b505050506040513d6000823e3d601f19601f820116820180604052508101906104af91906118e5565b6040015160068111156104eb577f4e487b7100000000000000000000000000000000000000000000000000000000600052602160045260246000fd5b1461052b576040517f08c379a000000000000000000000000000000000000000000000000000000000815260040161052290611f33565b60405180910390fd5b6001600081548092919061053e90612225565b91905055506040518060e0016040528060015481526020013373ffffffffffffffffffffffffffffffffffffffff1681526020018273ffffffffffffffffffffffffffffffffffffffff168152602001858152602001848152602001838152602001600060068111156105da577f4e487b7100000000000000000000000000000000000000000000000000000000600052602160045260246000fd5b8152506002600060015481526020019081526020016000206000820151816000015560208201518160010160006101000a81548173ffffffffffffffffffffffffffffffffffffffff021916908373ffffffffffffffffffffffffffffffffffffffff16021790555060408201518160020160006101000a81548173ffffffffffffffffffffffffffffffffffffffff021916908373ffffffffffffffffffffffffffffffffffffffff160217905550606082015181600301556080820151816004015560a0820151816005015560c08201518160060160006101000a81548160ff021916908360068111156106f9577f4e487b7100000000000000000000000000000000000000000000000000000000600052602160045260246000fd5b0217905550905050600360003373ffffffffffffffffffffffffffffffffffffffff1673ffffffffffffffffffffffffffffffffffffffff16815260200190815260200160002060015490806001815401808255809150506001900390600052602060002001600090919091909150558073ffffffffffffffffffffffffffffffffffffffff163373ffffffffffffffffffffffffffffffffffffffff166001547f964451f920f35e47bb8345effb855bd9f8cffdbf2e450bcfb2a8008a9e1da75e60405160405180910390a450505050565b60006002600083815260200190815260200160002090503373ffffffffffffffffffffffffffffffffffffffff168160020160009054906101000a900473ffffffffffffffffffffffffffffffffffffffff1673ffffffffffffffffffffffffffffffffffffffff1614610875576040517f08c379a000000000000000000000000000000000000000000000000000000000815260040161086c90611f93565b60405180910390fd5b600260068111156108af577f4e487b7100000000000000000000000000000000000000000000000000000000600052602160045260246000fd5b8160060160009054906101000a900460ff1660068111156108f9577f4e487b7100000000000000000000000000000000000000000000000000000000600052602160045260246000fd5b14610939576040517f08c379a000000000000000000000000000000000000000000000000000000000815260040161093090611f13565b60405180910390fd5b60038160060160006101000a81548160ff02191690836006811115610987577f4e487b7100000000000000000000000000000000000000000000000000000000600052602160045260246000fd5b0217905550817fd2d0ed0cccc8615643ade1eff3929a29ed8df75ebca85a3996e311c9b69e228960405160405180910390a25050565b60006002600083815260200190815260200160002090503373ffffffffffffffffffffffffffffffffffffffff168160020160009054906101000a900473ffffffffffffffffffffffffffffffffffffffff1673ffffffffffffffffffffffffffffffffffffffff1614610a66576040517f08c379a0000000000000000000000000000000000000000000000000000000008152600401610a5d90611f93565b60405180910390fd5b60006006811115610aa0577f4e487b7100000000000000000000000000000000000000000000000000000000600052602160045260246000fd5b8160060160009054906101000a900460ff166006811115610aea577f4e487b7100000000000000000000000000000000000000000000000000000000600052602160045260246000fd5b14610b2a576040517f08c379a0000000000000000000000000000000000000000000000000000000008152600401610b2190611ef3565b60405180910390fd5b60068160060160006101000a81548160ff02191690836006811115610b78577f4e487b7100000000000000000000000000000000000000000000000000000000600052602160045260246000fd5b0217905550817f922735635d7fbe7fb8cbb167ace487c0933a23473a2e338276f0e9d47203b3b960405160405180910390a25050565b60008054906101000a900473ffffffffffffffffffffffffffffffffffffffff1681565b60006002600083815260200190815260200160002090503373ffffffffffffffffffffffffffffffffffffffff168160020160009054906101000a900473ffffffffffffffffffffffffffffffffffffffff1673ffffffffffffffffffffffffffffffffffffffff1614610c7b576040517f08c379a0000000000000000000000000000000000000000000000000000000008152600401610c7290611f93565b60405180910390fd5b60006006811115610cb5577f4e487b7100000000000000000000000000000000000000000000000000000000600052602160045260246000fd5b8160060160009054906101000a900460ff166006811115610cff577f4e487b7100000000000000000000000000000000000000000000000000000000600052602160045260246000fd5b14610d3f576040517f08c379a0000000000000000000000000000000000000000000000000000000008152600401610d3690611ef3565b60405180910390fd5b60018160060160006101000a81548160ff02191690836006811115610d8d577f4e487b7100000000000000000000000000000000000000000000000000000000600052602160045260246000fd5b0217905550817fad3ecebb8c0ffc9345044219d173dbaa4b6e27caff4829a392c252e6e12d638f60405160405180910390a25050565b60606000600360008473ffffffffffffffffffffffffffffffffffffffff1673ffffffffffffffffffffffffffffffffffffffff168152602001908152602001600020805480602002602001604051908101604052809291908181526020018280548015610e5057602002820191906000526020600020905b815481526020019060010190808311610e3c575b505050505090506000815167ffffffffffffffff811115610e9a577f4e487b7100000000000000000000000000000000000000000000000000000000600052604160045260246000fd5b604051908082528060200260200182016040528015610ed357816020015b610ec0611659565b815260200190600190039081610eb85790505b50905060005b82518110156110f8576000838281518110610f1d577f4e487b7100000000000000000000000000000000000000000000000000000000600052603260045260246000fd5b60200260200101519050600260008281526020019081526020016000206040518060e0016040529081600082015481526020016001820160009054906101000a900473ffffffffffffffffffffffffffffffffffffffff1673ffffffffffffffffffffffffffffffffffffffff1673ffffffffffffffffffffffffffffffffffffffff1681526020016002820160009054906101000a900473ffffffffffffffffffffffffffffffffffffffff1673ffffffffffffffffffffffffffffffffffffffff1673ffffffffffffffffffffffffffffffffffffffff1681526020016003820154815260200160048201548152602001600582015481526020016006820160009054906101000a900460ff166006811115611064577f4e487b7100000000000000000000000000000000000000000000000000000000600052602160045260246000fd5b600681111561109c577f4e487b7100000000000000000000000000000000000000000000000000000000600052602160045260246000fd5b815250508383815181106110d9577f4e487b7100000000000000000000000000000000000000000000000000000000600052603260045260246000fd5b60200260200101819052505080806110f090612225565b915050610ed9565b508092505050919050565b60006002600083815260200190815260200160002090503373ffffffffffffffffffffffffffffffffffffffff168160020160009054906101000a900473ffffffffffffffffffffffffffffffffffffffff1673ffffffffffffffffffffffffffffffffffffffff16146111ac576040517f08c379a00000000000000000000000000000000000000000000000000000000081526004016111a390611f93565b60405180910390fd5b600360068111156111e6577f4e487b7100000000000000000000000000000000000000000000000000000000600052602160045260246000fd5b8160060160009054906101000a900460ff166006811115611230577f4e487b7100000000000000000000000000000000000000000000000000000000600052602160045260246000fd5b14611270576040517f08c379a000000000000000000000000000000000000000000000000000000000815260040161126790611fd3565b60405180910390fd5b60048160060160006101000a81548160ff021916908360068111156112be577f4e487b7100000000000000000000000000000000000000000000000000000000600052602160045260246000fd5b0217905550817fca31314c7427bb58fe754fc57319f1118e6bde4e6436d6006170681550518df960405160405180910390a25050565b6060600360008373ffffffffffffffffffffffffffffffffffffffff1673ffffffffffffffffffffffffffffffffffffffff16815260200190815260200160002080548060200260200160405190810160405280929190818152602001828054801561137f57602002820191906000526020600020905b81548152602001906001019080831161136b575b50505050509050919050565b600360205281600052604060002081815481106113a757600080fd5b90600052602060002001600091509150505481565b60026020528060005260406000206000915090508060000154908060010160009054906101000a900473ffffffffffffffffffffffffffffffffffffffff16908060020160009054906101000a900473ffffffffffffffffffffffffffffffffffffffff16908060030154908060040154908060050154908060060160009054906101000a900460ff16905087565b60015481565b60006002600083815260200190815260200160002090503373ffffffffffffffffffffffffffffffffffffffff168160010160009054906101000a900473ffffffffffffffffffffffffffffffffffffffff1673ffffffffffffffffffffffffffffffffffffffff16146114fa576040517f08c379a00000000000000000000000000000000000000000000000000000000081526004016114f190611fb3565b60405180910390fd5b60016006811115611534577f4e487b7100000000000000000000000000000000000000000000000000000000600052602160045260246000fd5b8160060160009054906101000a900460ff16600681111561157e577f4e487b7100000000000000000000000000000000000000000000000000000000600052602160045260246000fd5b146115be576040517f08c379a00000000000000000000000000000000000000000000000000000000081526004016115b590611f73565b60405180910390fd5b60028160060160006101000a81548160ff0219169083600681111561160c577f4e487b7100000000000000000000000000000000000000000000000000000000600052602160045260246000fd5b02179055503373ffffffffffffffffffffffffffffffffffffffff16827fb22ad74b516ae77f8ab946c8614cc1dd4c3f078aa69046d69e47ca2bb1d4131760405160405180910390a35050565b6040518060e0016040528060008152602001600073ffffffffffffffffffffffffffffffffffffffff168152602001600073ffffffffffffffffffffffffffffffffffffffff168152602001600081526020016000815260200160008152602001600060068111156116f4577f4e487b7100000000000000000000000000000000000000000000000000000000600052602160045260246000fd5b81525090565b600061170d611708846120ae565b61207d565b90508281526020810184848401111561172557600080fd5b6117308482856121f2565b509392505050565b6000813590506117478161230f565b92915050565b60008151905061175c8161230f565b92915050565b60008151905061177181612326565b92915050565b6000815190506117868161233d565b92915050565b600082601f83011261179d57600080fd5b81516117ad8482602086016116fa565b91505092915050565b600060a082840312156117c857600080fd5b6117d260a061207d565b905060006117e28482850161174d565b600083015250602082015167ffffffffffffffff81111561180257600080fd5b61180e8482850161178c565b602083015250604061182284828501611777565b604083015250606061183684828501611762565b606083015250608061184a8482850161186b565b60808301525092915050565b6000813590506118658161234d565b92915050565b60008151905061187a8161234d565b92915050565b60006020828403121561189257600080fd5b60006118a084828501611738565b91505092915050565b600080604083850312156118bc57600080fd5b60006118ca85828601611738565b92505060206118db85828601611856565b9150509250929050565b6000602082840312156118f757600080fd5b600082015167ffffffffffffffff81111561191157600080fd5b61191d848285016117b6565b91505092915050565b60006020828403121561193857600080fd5b600061194684828501611856565b91505092915050565b6000806000806080858703121561196557600080fd5b600061197387828801611856565b945050602061198487828801611856565b935050604061199587828801611856565b92505060606119a687828801611738565b91505092959194509250565b60006119be8383611dcd565b60e08301905092915050565b60006119d68383611e5b565b60208301905092915050565b6119eb81612161565b82525050565b6119fa81612161565b82525050565b6000611a0b826120fe565b611a15818561212e565b9350611a20836120de565b8060005b83811015611a51578151611a3888826119b2565b9750611a4383612114565b925050600181019050611a24565b5085935050505092915050565b6000611a6982612109565b611a73818561213f565b9350611a7e836120ee565b8060005b83811015611aaf578151611a9688826119ca565b9750611aa183612121565b925050600181019050611a82565b5085935050505092915050565b611ac5816121bc565b82525050565b611ad4816121e0565b82525050565b611ae3816121e0565b82525050565b6000611af6601f83612150565b91507f506f6c696379206973206e6f742070656e64696e6720617070726f76616c2e006000830152602082019050919050565b6000611b36602883612150565b91507f436c61696d206d75737420626520726571756573746564206279206661726d6560008301527f722066697273742e0000000000000000000000000000000000000000000000006020830152604082019050919050565b6000611b9c602383612150565b91507f496e76616c696420696e737572616e63652070726f766964657220616464726560008301527f73732e00000000000000000000000000000000000000000000000000000000006020830152604082019050919050565b6000611c02602283612150565b91507f4f6e6c79206661726d6572732063616e207265717565737420706f6c6963696560008301527f732e0000000000000000000000000000000000000000000000000000000000006020830152604082019050919050565b6000611c68602883612150565b91507f43616e206f6e6c792066696c6520636c61696d73206f6e20616374697665207060008301527f6f6c69636965732e0000000000000000000000000000000000000000000000006020830152604082019050919050565b6000611cce602983612150565b91507f596f7520617265206e6f74207468652070726f766964657220666f722074686960008301527f7320706f6c6963792e00000000000000000000000000000000000000000000006020830152604082019050919050565b6000611d34602a83612150565b91507f4f6e6c792074686520706f6c696379686f6c6465722063616e2072657175657360008301527f74206120636c61696d2e000000000000000000000000000000000000000000006020830152604082019050919050565b6000611d9a601d83612150565b91507f436c61696d206d75737420626520617070726f7665642066697273742e0000006000830152602082019050919050565b60e082016000820151611de36000850182611e5b565b506020820151611df660208501826119e2565b506040820151611e0960408501826119e2565b506060820151611e1c6060850182611e5b565b506080820151611e2f6080850182611e5b565b5060a0820151611e4260a0850182611e5b565b5060c0820151611e5560c0850182611acb565b50505050565b611e64816121b2565b82525050565b611e73816121b2565b82525050565b6000602082019050611e8e60008301846119f1565b92915050565b60006020820190508181036000830152611eae8184611a00565b905092915050565b60006020820190508181036000830152611ed08184611a5e565b905092915050565b6000602082019050611eed6000830184611abc565b92915050565b60006020820190508181036000830152611f0c81611ae9565b9050919050565b60006020820190508181036000830152611f2c81611b29565b9050919050565b60006020820190508181036000830152611f4c81611b8f565b9050919050565b60006020820190508181036000830152611f6c81611bf5565b9050919050565b60006020820190508181036000830152611f8c81611c5b565b9050919050565b60006020820190508181036000830152611fac81611cc1565b9050919050565b60006020820190508181036000830152611fcc81611d27565b9050919050565b60006020820190508181036000830152611fec81611d8d565b9050919050565b60006020820190506120086000830184611e6a565b92915050565b600060e082019050612023600083018a611e6a565b61203060208301896119f1565b61203d60408301886119f1565b61204a6060830187611e6a565b6120576080830186611e6a565b61206460a0830185611e6a565b61207160c0830184611ada565b98975050505050505050565b6000604051905081810181811067ffffffffffffffff821117156120a4576120a36122cc565b5b8060405250919050565b600067ffffffffffffffff8211156120c9576120c86122cc565b5b601f19601f8301169050602081019050919050565b6000819050602082019050919050565b6000819050602082019050919050565b600081519050919050565b600081519050919050565b6000602082019050919050565b6000602082019050919050565b600082825260208201905092915050565b600082825260208201905092915050565b600082825260208201905092915050565b600061216c82612192565b9050919050565b60008115159050919050565b600081905061218d826122fb565b919050565b600073ffffffffffffffffffffffffffffffffffffffff82169050919050565b6000819050919050565b60006121c7826121ce565b9050919050565b60006121d982612192565b9050919050565b60006121eb8261217f565b9050919050565b60005b838110156122105780820151818401526020810190506121f5565b8381111561221f576000848401525b50505050565b6000612230826121b2565b91507fffffffffffffffffffffffffffffffffffffffffffffffffffffffffffffffff8214156122635761226261226e565b5b600182019050919050565b7f4e487b7100000000000000000000000000000000000000000000000000000000600052601160045260246000fd5b7f4e487b7100000000000000000000000000000000000000000000000000000000600052602160045260246000fd5b7f4e487b7100000000000000000000000000000000000000000000000000000000600052604160045260246000fd5b6007811061230c5761230b61229d565b5b50565b61231881612161565b811461232357600080fd5b50565b61232f81612173565b811461233a57600080fd5b50565b6007811061234a57600080fd5b50565b612356816121b2565b811461236157600080fd5b5056fea264697066735822122046d76897d8747d242d24f78c99ec6832b46f8c7672e68545136b8c48edfe720664736f6c63430008000033",
  "immutableReferences": {},
  "source": "// SPDX-License-Identifier: MIT\r\npragma solidity >=0.8.0 <0.9.0;\r\n\r\nimport \"./UserRegistry.sol\";\r\n\r\ncontract CropInsurance {\r\n    UserRegistry public userRegistry;\r\n    uint256 public policyCounter;\r\n\r\n    //  Added \"Rejected\" status\r\n    enum PolicyStatus { PendingApproval, Active, ClaimRequested, ClaimApproved, PaidOut, Expired, Rejected }\r\n\r\n    struct Policy {\r\n        uint256 id;\r\n        address farmer;\r\n        address insuranceProvider;\r\n        uint256 productId;\r\n        uint256 sumInsured;\r\n        uint256 premium;\r\n        PolicyStatus status;\r\n    }\r\n\r\n    event PolicyRequested(uint256 indexed policyId, address indexed farmer, address indexed provider);\r\n    event PolicyActivated(uint256 indexed policyId);\r\n    event PolicyRejected(uint256 indexed policyId); //  Event for rejection\r\n    event ClaimRequested(uint256 indexed policyId, address indexed farmer);\r\n    event ClaimApproved(uint256 indexed policyId);\r\n    event PayoutCompleted(uint256 indexed policyId);\r\n\r\n    mapping(uint256 => Policy) public policies;\r\n\r\n    // --- OPTIMIZATION: Mapping from farmer address to their policy IDs ---\r\n    mapping(address => uint256[]) public policyIdsByFarmer;\r\n\r\n    constructor(address _registryAddress) {\r\n        userRegistry = UserRegistry(_registryAddress);\r\n    }\r\n\r\n    // STEP 1: Called by the FARMER after accepting an off-chain quote.\r\n    function requestPolicy(uint256 _productId, uint256 _sumInsured, uint256 _premium, address _insuranceProvider) public {\r\n        require(userRegistry.getUser(msg.sender).role == UserRegistry.UserRole.Farmer, \"Only farmers can request policies.\");\r\n        require(userRegistry.getUser(_insuranceProvider).role == UserRegistry.UserRole.Insurance, \"Invalid insurance provider address.\");\r\n        \r\n        policyCounter++;\r\n        policies[policyCounter] = Policy(\r\n            policyCounter, msg.sender, _insuranceProvider, _productId, _sumInsured, _premium, PolicyStatus.PendingApproval\r\n        );\r\n\r\n        // --- MODIFICATION: Add the new policy ID to the farmer's list ---\r\n        policyIdsByFarmer[msg.sender].push(policyCounter);\r\n\r\n        emit PolicyRequested(policyCounter, msg.sender, _insuranceProvider);\r\n    }\r\n\r\n    // STEP 2: Called by the INSURANCE provider to approve the request.\r\n    function approvePolicy(uint256 _policyId) public {\r\n        Policy storage policy = policies[_policyId];\r\n        require(policy.insuranceProvider == msg.sender, \"You are not the provider for this policy.\");\r\n        require(policy.status == PolicyStatus.PendingApproval, \"Policy is not pending approval.\");\r\n        \r\n        // In a real dApp, this is where the premium payment from the farmer to the insurer would be handled.\r\n        \r\n        policy.status = PolicyStatus.Active;\r\n        emit PolicyActivated(_policyId);\r\n    }\r\n\r\n    //  Called by the INSURANCE provider to reject the request.\r\n    function rejectPolicy(uint256 _policyId) public {\r\n        Policy storage policy = policies[_policyId];\r\n        require(policy.insuranceProvider == msg.sender, \"You are not the provider for this policy.\");\r\n        require(policy.status == PolicyStatus.PendingApproval, \"Policy is not pending approval.\");\r\n        \r\n        policy.status = PolicyStatus.Rejected;\r\n        emit PolicyRejected(_policyId);\r\n    }\r\n    \r\n    function requestClaim(uint256 _policyId) public {\r\n        Policy storage policy = policies[_policyId];\r\n        require(policy.farmer == msg.sender, \"Only the policyholder can request a claim.\");\r\n        require(policy.status == PolicyStatus.Active, \"Can only file claims on active policies.\");\r\n\r\n        policy.status = PolicyStatus.ClaimRequested;\r\n        emit ClaimRequested(_policyId, msg.sender);\r\n    }\r\n\r\n    function approveClaim(uint256 _policyId) public {\r\n        Policy storage policy = policies[_policyId];\r\n        require(policy.insuranceProvider == msg.sender, \"You are not the provider for this policy.\");\r\n        require(policy.status == PolicyStatus.ClaimRequested, \"Claim must be requested by farmer first.\");\r\n        \r\n        policy.status = PolicyStatus.ClaimApproved;\r\n        emit ClaimApproved(_policyId);\r\n    }\r\n\r\n    function markAsPaid(uint256 _policyId) public {\r\n        Policy storage policy = policies[_policyId];\r\n        require(policy.insuranceProvider == msg.sender, \"You are not the provider for this policy.\");\r\n        require(policy.status == PolicyStatus.ClaimApproved, \"Claim must be approved first.\");\r\n\r\n        policy.status = PolicyStatus.PaidOut;\r\n        emit PayoutCompleted(_policyId);\r\n    }\r\n\r\n    // --- OPTIMIZATION: New function to get all policy IDs for a farmer ---\r\n    function getPolicyIdsByFarmer(address _farmer) public view returns (uint256[] memory) {\r\n        return policyIdsByFarmer[_farmer];\r\n    }\r\n\r\n    // --- OPTIMIZATION: New function to get all POLICY DETAILS for a farmer in one call ---\r\n    function getPoliciesByFarmer(address _farmer) public view returns (Policy[] memory) {\r\n        // First, get the array of policy IDs for the given farmer.\r\n        uint256[] memory farmerPolicyIds = policyIdsByFarmer[_farmer];\r\n        \r\n        // Create a new memory array to store the full Policy structs.\r\n        // Its size is the number of policies the farmer has.\r\n        Policy[] memory farmerPolicies = new Policy[](farmerPolicyIds.length);\r\n\r\n        // Loop through the policy IDs and fetch the corresponding Policy struct for each one.\r\n        for (uint i = 0; i < farmerPolicyIds.length; i++) {\r\n            uint256 policyId = farmerPolicyIds[i];\r\n            farmerPolicies[i] = policies[policyId];\r\n        }\r\n\r\n        // Return the populated array of full Policy structs.\r\n        return farmerPolicies;\r\n    }\r\n}",
  "sourcePath": "D:\\WEB\\Blockchain\\SupplyChain\\New folder\\contracts\\CropInsurance.sol",
  "compiler": {
    "name": "solc",
    "version": "0.8.0+commit.c7dfd78e.Emscripten.clang"
  },
  "schemaVersion": "3.4.16",
  "updatedAt": "2025-10-31T10:46:53.811Z",
  "networkType": "ethereum",
  "devdoc": {
    "kind": "dev",
    "methods": {},
    "version": 1
  },
  "userdoc": {
    "kind": "user",
    "methods": {},
    "version": 1
  }
}