{
  "contractName": "LoanMatching",
  "abi": [
    {
      "inputs": [
        {
          "internalType": "address",
          "name": "_registryAddress",
          "type": "address"
        }
      ],
      "stateMutability": "nonpayable",
      "type": "constructor"
    },
    {
      "anonymous": false,
      "inputs": [
        {
          "indexed": true,
          "internalType": "uint256",
          "name": "appId",
          "type": "uint256"
        },
        {
          "indexed": true,
          "internalType": "address",
          "name": "farmer",
          "type": "address"
        },
        {
          "indexed": true,
          "internalType": "address",
          "name": "bank",
          "type": "address"
        }
      ],
      "name": "LoanApplied",
      "type": "event"
    },
    {
      "anonymous": false,
      "inputs": [
        {
          "indexed": true,
          "internalType": "uint256",
          "name": "appId",
          "type": "uint256"
        },
        {
          "indexed": true,
          "internalType": "address",
          "name": "farmer",
          "type": "address"
        },
        {
          "indexed": false,
          "internalType": "uint256",
          "name": "amount",
          "type": "uint256"
        }
      ],
      "name": "LoanRepaid",
      "type": "event"
    },
    {
      "anonymous": false,
      "inputs": [
        {
          "indexed": true,
          "internalType": "uint256",
          "name": "appId",
          "type": "uint256"
        },
        {
          "indexed": false,
          "internalType": "enum LoanMatching.LoanStatus",
          "name": "newStatus",
          "type": "uint8"
        }
      ],
      "name": "LoanStatusUpdated",
      "type": "event"
    },
    {
      "inputs": [],
      "name": "applicationCounter",
      "outputs": [
        {
          "internalType": "uint256",
          "name": "",
          "type": "uint256"
        }
      ],
      "stateMutability": "view",
      "type": "function",
      "constant": true
    },
    {
      "inputs": [
        {
          "internalType": "address",
          "name": "",
          "type": "address"
        },
        {
          "internalType": "uint256",
          "name": "",
          "type": "uint256"
        }
      ],
      "name": "applicationIdsByFarmer",
      "outputs": [
        {
          "internalType": "uint256",
          "name": "",
          "type": "uint256"
        }
      ],
      "stateMutability": "view",
      "type": "function",
      "constant": true
    },
    {
      "inputs": [
        {
          "internalType": "uint256",
          "name": "",
          "type": "uint256"
        }
      ],
      "name": "applications",
      "outputs": [
        {
          "internalType": "uint256",
          "name": "id",
          "type": "uint256"
        },
        {
          "internalType": "address",
          "name": "farmer",
          "type": "address"
        },
        {
          "internalType": "address",
          "name": "bank",
          "type": "address"
        },
        {
          "internalType": "uint256",
          "name": "amount",
          "type": "uint256"
        },
        {
          "internalType": "uint256",
          "name": "insurancePolicyId",
          "type": "uint256"
        },
        {
          "internalType": "enum LoanMatching.LoanStatus",
          "name": "status",
          "type": "uint8"
        }
      ],
      "stateMutability": "view",
      "type": "function",
      "constant": true
    },
    {
      "inputs": [],
      "name": "userRegistry",
      "outputs": [
        {
          "internalType": "contract UserRegistry",
          "name": "",
          "type": "address"
        }
      ],
      "stateMutability": "view",
      "type": "function",
      "constant": true
    },
    {
      "inputs": [
        {
          "internalType": "address",
          "name": "_bank",
          "type": "address"
        },
        {
          "internalType": "uint256",
          "name": "_amount",
          "type": "uint256"
        },
        {
          "internalType": "uint256",
          "name": "_insurancePolicyId",
          "type": "uint256"
        }
      ],
      "name": "applyForLoan",
      "outputs": [],
      "stateMutability": "nonpayable",
      "type": "function"
    },
    {
      "inputs": [
        {
          "internalType": "uint256",
          "name": "_appId",
          "type": "uint256"
        },
        {
          "internalType": "enum LoanMatching.LoanStatus",
          "name": "_newStatus",
          "type": "uint8"
        }
      ],
      "name": "updateLoanStatus",
      "outputs": [],
      "stateMutability": "nonpayable",
      "type": "function"
    },
    {
      "inputs": [
        {
          "internalType": "address",
          "name": "_farmer",
          "type": "address"
        }
      ],
      "name": "getApplicationIdsByFarmer",
      "outputs": [
        {
          "internalType": "uint256[]",
          "name": "",
          "type": "uint256[]"
        }
      ],
      "stateMutability": "view",
      "type": "function",
      "constant": true
    },
    {
      "inputs": [
        {
          "internalType": "address",
          "name": "_farmer",
          "type": "address"
        }
      ],
      "name": "getApplicationsAndBankNamesByFarmer",
      "outputs": [
        {
          "components": [
            {
              "components": [
                {
                  "internalType": "uint256",
                  "name": "id",
                  "type": "uint256"
                },
                {
                  "internalType": "address",
                  "name": "farmer",
                  "type": "address"
                },
                {
                  "internalType": "address",
                  "name": "bank",
                  "type": "address"
                },
                {
                  "internalType": "uint256",
                  "name": "amount",
                  "type": "uint256"
                },
                {
                  "internalType": "uint256",
                  "name": "insurancePolicyId",
                  "type": "uint256"
                },
                {
                  "internalType": "enum LoanMatching.LoanStatus",
                  "name": "status",
                  "type": "uint8"
                }
              ],
              "internalType": "struct LoanMatching.LoanApplication",
              "name": "application",
              "type": "tuple"
            },
            {
              "internalType": "string",
              "name": "bankName",
              "type": "string"
            }
          ],
          "internalType": "struct LoanMatching.LoanApplicationView[]",
          "name": "",
          "type": "tuple[]"
        }
      ],
      "stateMutability": "view",
      "type": "function",
      "constant": true
    },
    {
      "inputs": [
        {
          "internalType": "uint256",
          "name": "_appId",
          "type": "uint256"
        }
      ],
      "name": "repayLoan",
      "outputs": [],
      "stateMutability": "payable",
      "type": "function",
      "payable": true
    }
  ],
  "bytecode": "0x60806040523480156200001157600080fd5b50604051620020d9380380620020d9833981810160405281019062000037919062000095565b806000806101000a81548173ffffffffffffffffffffffffffffffffffffffff021916908373ffffffffffffffffffffffffffffffffffffffff160217905550506200010f565b6000815190506200008f81620000f5565b92915050565b600060208284031215620000a857600080fd5b6000620000b8848285016200007e565b91505092915050565b6000620000ce82620000d5565b9050919050565b600073ffffffffffffffffffffffffffffffffffffffff82169050919050565b6200010081620000c1565b81146200010c57600080fd5b50565b611fba806200011f6000396000f3fe6080604052600436106100865760003560e01c8063ab7b1c8911610059578063ab7b1c8914610159578063c937cf0214610175578063db144d01146101b2578063dfefadff146101dd578063e7c642a31461021f57610086565b80634efe27201461008b5780635c7460d6146100b457806371dccb29146100df578063a8a52d561461011c575b600080fd5b34801561009757600080fd5b506100b260048036038101906100ad919061148f565b610248565b005b3480156100c057600080fd5b506100c96107a0565b6040516100d69190611ac3565b60405180910390f35b3480156100eb57600080fd5b506101066004803603810190610101919061142a565b6107c4565b6040516101139190611a7f565b60405180910390f35b34801561012857600080fd5b50610143600480360381019061013e919061142a565b610be3565b6040516101509190611aa1565b60405180910390f35b610173600480360381019061016e919061151f565b610c7a565b005b34801561018157600080fd5b5061019c60048036038101906101979190611453565b610fdd565b6040516101a99190611bd9565b60405180910390f35b3480156101be57600080fd5b506101c761100e565b6040516101d49190611bd9565b60405180910390f35b3480156101e957600080fd5b5061020460048036038101906101ff919061151f565b611014565b60405161021696959493929190611bf4565b60405180910390f35b34801561022b57600080fd5b5061024660048036038101906102419190611548565b61109d565b005b60016006811115610282577f4e487b7100000000000000000000000000000000000000000000000000000000600052602160045260246000fd5b60008054906101000a900473ffffffffffffffffffffffffffffffffffffffff1673ffffffffffffffffffffffffffffffffffffffff16636f77926b336040518263ffffffff1660e01b81526004016102db9190611a64565b60006040518083038186803b1580156102f357600080fd5b505afa158015610307573d6000803e3d6000fd5b505050506040513d6000823e3d601f19601f8201168201806040525081019061033091906114de565b60400151600681111561036c577f4e487b7100000000000000000000000000000000000000000000000000000000600052602160045260246000fd5b146103ac576040517f08c379a00000000000000000000000000000000000000000000000000000000081526004016103a390611b59565b60405180910390fd5b600460068111156103e6577f4e487b7100000000000000000000000000000000000000000000000000000000600052602160045260246000fd5b60008054906101000a900473ffffffffffffffffffffffffffffffffffffffff1673ffffffffffffffffffffffffffffffffffffffff16636f77926b856040518263ffffffff1660e01b815260040161043f9190611a64565b60006040518083038186803b15801561045757600080fd5b505afa15801561046b573d6000803e3d6000fd5b505050506040513d6000823e3d601f19601f8201168201806040525081019061049491906114de565b6040015160068111156104d0577f4e487b7100000000000000000000000000000000000000000000000000000000600052602160045260246000fd5b14610510576040517f08c379a000000000000000000000000000000000000000000000000000000000815260040161050790611af9565b60405180910390fd5b6001600081548092919061052390611e24565b91905055506040518060c0016040528060015481526020013373ffffffffffffffffffffffffffffffffffffffff1681526020018473ffffffffffffffffffffffffffffffffffffffff168152602001838152602001828152602001600060048111156105b9577f4e487b7100000000000000000000000000000000000000000000000000000000600052602160045260246000fd5b8152506002600060015481526020019081526020016000206000820151816000015560208201518160010160006101000a81548173ffffffffffffffffffffffffffffffffffffffff021916908373ffffffffffffffffffffffffffffffffffffffff16021790555060408201518160020160006101000a81548173ffffffffffffffffffffffffffffffffffffffff021916908373ffffffffffffffffffffffffffffffffffffffff160217905550606082015181600301556080820151816004015560a08201518160050160006101000a81548160ff021916908360048111156106ce577f4e487b7100000000000000000000000000000000000000000000000000000000600052602160045260246000fd5b0217905550905050600360003373ffffffffffffffffffffffffffffffffffffffff1673ffffffffffffffffffffffffffffffffffffffff16815260200190815260200160002060015490806001815401808255809150506001900390600052602060002001600090919091909150558273ffffffffffffffffffffffffffffffffffffffff163373ffffffffffffffffffffffffffffffffffffffff166001547fc2477375cca122dc31426a9b1914d6fd23aab5f60809b9405e86dfa34784be6f60405160405180910390a4505050565b60008054906101000a900473ffffffffffffffffffffffffffffffffffffffff1681565b60606000600360008473ffffffffffffffffffffffffffffffffffffffff1673ffffffffffffffffffffffffffffffffffffffff16815260200190815260200160002080548060200260200160405190810160405280929190818152602001828054801561085157602002820191906000526020600020905b81548152602001906001019080831161083d575b505050505090506000815167ffffffffffffffff81111561089b577f4e487b7100000000000000000000000000000000000000000000000000000000600052604160045260246000fd5b6040519080825280602002602001820160405280156108d457816020015b6108c16111d5565b8152602001906001900390816108b95790505b50905060005b8251811015610bd857600060026000858481518110610922577f4e487b7100000000000000000000000000000000000000000000000000000000600052603260045260246000fd5b6020026020010151815260200190815260200160002090506040518060400160405280826040518060c0016040529081600082015481526020016001820160009054906101000a900473ffffffffffffffffffffffffffffffffffffffff1673ffffffffffffffffffffffffffffffffffffffff1673ffffffffffffffffffffffffffffffffffffffff1681526020016002820160009054906101000a900473ffffffffffffffffffffffffffffffffffffffff1673ffffffffffffffffffffffffffffffffffffffff1673ffffffffffffffffffffffffffffffffffffffff16815260200160038201548152602001600482015481526020016005820160009054906101000a900460ff166004811115610a66577f4e487b7100000000000000000000000000000000000000000000000000000000600052602160045260246000fd5b6004811115610a9e577f4e487b7100000000000000000000000000000000000000000000000000000000600052602160045260246000fd5b81525050815260200160008054906101000a900473ffffffffffffffffffffffffffffffffffffffff1673ffffffffffffffffffffffffffffffffffffffff16636f77926b8460020160009054906101000a900473ffffffffffffffffffffffffffffffffffffffff166040518263ffffffff1660e01b8152600401610b249190611a64565b60006040518083038186803b158015610b3c57600080fd5b505afa158015610b50573d6000803e3d6000fd5b505050506040513d6000823e3d601f19601f82011682018060405250810190610b7991906114de565b60200151815250838381518110610bb9577f4e487b7100000000000000000000000000000000000000000000000000000000600052603260045260246000fd5b6020026020010181905250508080610bd090611e24565b9150506108da565b508092505050919050565b6060600360008373ffffffffffffffffffffffffffffffffffffffff1673ffffffffffffffffffffffffffffffffffffffff168152602001908152602001600020805480602002602001604051908101604052809291908181526020018280548015610c6e57602002820191906000526020600020905b815481526020019060010190808311610c5a575b50505050509050919050565b60006002600083815260200190815260200160002090503373ffffffffffffffffffffffffffffffffffffffff168160010160009054906101000a900473ffffffffffffffffffffffffffffffffffffffff1673ffffffffffffffffffffffffffffffffffffffff1614610d23576040517f08c379a0000000000000000000000000000000000000000000000000000000008152600401610d1a90611bb9565b60405180910390fd5b60016004811115610d5d577f4e487b7100000000000000000000000000000000000000000000000000000000600052602160045260246000fd5b8160050160009054906101000a900460ff166004811115610da7577f4e487b7100000000000000000000000000000000000000000000000000000000600052602160045260246000fd5b14610de7576040517f08c379a0000000000000000000000000000000000000000000000000000000008152600401610dde90611b99565b60405180910390fd5b80600301543414610e2d576040517f08c379a0000000000000000000000000000000000000000000000000000000008152600401610e2490611b19565b60405180910390fd5b60008160020160009054906101000a900473ffffffffffffffffffffffffffffffffffffffff1673ffffffffffffffffffffffffffffffffffffffff1634604051610e7790611a4f565b60006040518083038185875af1925050503d8060008114610eb4576040519150601f19603f3d011682016040523d82523d6000602084013e610eb9565b606091505b5050905080610efd576040517f08c379a0000000000000000000000000000000000000000000000000000000008152600401610ef490611b79565b60405180910390fd5b60038260050160006101000a81548160ff02191690836004811115610f4b577f4e487b7100000000000000000000000000000000000000000000000000000000600052602160045260246000fd5b02179055503373ffffffffffffffffffffffffffffffffffffffff16837f512d3e65b3e58c2187bb1872aa435dba5bd09c1c03823ba56ab70aac411e4a2134604051610f979190611bd9565b60405180910390a3827fca025541f3b98a26e6b88a58dde138008b18408e6643c0b90cfed597351fe2c86003604051610fd09190611ade565b60405180910390a2505050565b60036020528160005260406000208181548110610ff957600080fd5b90600052602060002001600091509150505481565b60015481565b60026020528060005260406000206000915090508060000154908060010160009054906101000a900473ffffffffffffffffffffffffffffffffffffffff16908060020160009054906101000a900473ffffffffffffffffffffffffffffffffffffffff16908060030154908060040154908060050160009054906101000a900460ff16905086565b60006002600084815260200190815260200160002090503373ffffffffffffffffffffffffffffffffffffffff168160020160009054906101000a900473ffffffffffffffffffffffffffffffffffffffff1673ffffffffffffffffffffffffffffffffffffffff1614611146576040517f08c379a000000000000000000000000000000000000000000000000000000000815260040161113d90611b39565b60405180910390fd5b818160050160006101000a81548160ff02191690836004811115611193577f4e487b7100000000000000000000000000000000000000000000000000000000600052602160045260246000fd5b0217905550827fca025541f3b98a26e6b88a58dde138008b18408e6643c0b90cfed597351fe2c8836040516111c89190611ade565b60405180910390a2505050565b60405180604001604052806111e86111f5565b8152602001606081525090565b6040518060c0016040528060008152602001600073ffffffffffffffffffffffffffffffffffffffff168152602001600073ffffffffffffffffffffffffffffffffffffffff168152602001600081526020016000815260200160006004811115611289577f4e487b7100000000000000000000000000000000000000000000000000000000600052602160045260246000fd5b81525090565b60006112a261129d84611c86565b611c55565b9050828152602081018484840111156112ba57600080fd5b6112c5848285611df1565b509392505050565b6000813590506112dc81611f1f565b92915050565b6000815190506112f181611f1f565b92915050565b60008151905061130681611f36565b92915050565b60008135905061131b81611f4d565b92915050565b60008151905061133081611f5d565b92915050565b600082601f83011261134757600080fd5b815161135784826020860161128f565b91505092915050565b600060a0828403121561137257600080fd5b61137c60a0611c55565b9050600061138c848285016112e2565b600083015250602082015167ffffffffffffffff8111156113ac57600080fd5b6113b884828501611336565b60208301525060406113cc84828501611321565b60408301525060606113e0848285016112f7565b60608301525060806113f484828501611415565b60808301525092915050565b60008135905061140f81611f6d565b92915050565b60008151905061142481611f6d565b92915050565b60006020828403121561143c57600080fd5b600061144a848285016112cd565b91505092915050565b6000806040838503121561146657600080fd5b6000611474858286016112cd565b925050602061148585828601611400565b9150509250929050565b6000806000606084860312156114a457600080fd5b60006114b2868287016112cd565b93505060206114c386828701611400565b92505060406114d486828701611400565b9150509250925092565b6000602082840312156114f057600080fd5b600082015167ffffffffffffffff81111561150a57600080fd5b61151684828501611360565b91505092915050565b60006020828403121561153157600080fd5b600061153f84828501611400565b91505092915050565b6000806040838503121561155b57600080fd5b600061156985828601611400565b925050602061157a8582860161130c565b9150509250929050565b60006115908383611979565b905092915050565b60006115a48383611a31565b60208301905092915050565b6115b981611d60565b82525050565b6115c881611d60565b82525050565b60006115d982611cd6565b6115e38185611d11565b9350836020820285016115f585611cb6565b8060005b8581101561163157848403895281516116128582611584565b945061161d83611cf7565b925060208a019950506001810190506115f9565b50829750879550505050505092915050565b600061164e82611ce1565b6116588185611d22565b935061166383611cc6565b8060005b8381101561169457815161167b8882611598565b975061168683611d04565b925050600181019050611667565b5085935050505092915050565b6116aa81611dbb565b82525050565b6116b981611ddf565b82525050565b6116c881611ddf565b82525050565b60006116d982611cec565b6116e38185611d3e565b93506116f3818560208601611df1565b6116fc81611efa565b840191505092915050565b6000611714601583611d4f565b91507f496e76616c69642062616e6b20616464726573732e00000000000000000000006000830152602082019050919050565b6000611754602083611d4f565b91507f496e636f72726563742072657061796d656e7420616d6f756e742073656e742e6000830152602082019050919050565b6000611794602a83611d4f565b91507f596f7520617265206e6f74207468652062616e6b20666f72207468697320617060008301527f706c69636174696f6e2e000000000000000000000000000000000000000000006020830152604082019050919050565b60006117fa601783611d4f565b91507f4f6e6c79206661726d6572732063616e206170706c792e0000000000000000006000830152602082019050919050565b600061183a602183611d4f565b91507f4661696c656420746f2073656e6420457468657220746f207468652062616e6b60008301527f2e000000000000000000000000000000000000000000000000000000000000006020830152604082019050919050565b60006118a0602e83611d4f565b91507f4c6f616e206d75737420626520696e2027417070726f7665642720737461746560008301527f20746f206265207265706169642e0000000000000000000000000000000000006020830152604082019050919050565b6000611906600083611d33565b9150600082019050919050565b6000611920602783611d4f565b91507f4f6e6c7920746865206661726d6572206f662074686973206c6f616e2063616e60008301527f2072657061792e000000000000000000000000000000000000000000000000006020830152604082019050919050565b600060e08301600083015161199160008601826119b6565b50602083015184820360c08601526119a982826116ce565b9150508091505092915050565b60c0820160008201516119cc6000850182611a31565b5060208201516119df60208501826115b0565b5060408201516119f260408501826115b0565b506060820151611a056060850182611a31565b506080820151611a186080850182611a31565b5060a0820151611a2b60a08501826116b0565b50505050565b611a3a81611db1565b82525050565b611a4981611db1565b82525050565b6000611a5a826118f9565b9150819050919050565b6000602082019050611a7960008301846115bf565b92915050565b60006020820190508181036000830152611a9981846115ce565b905092915050565b60006020820190508181036000830152611abb8184611643565b905092915050565b6000602082019050611ad860008301846116a1565b92915050565b6000602082019050611af360008301846116bf565b92915050565b60006020820190508181036000830152611b1281611707565b9050919050565b60006020820190508181036000830152611b3281611747565b9050919050565b60006020820190508181036000830152611b5281611787565b9050919050565b60006020820190508181036000830152611b72816117ed565b9050919050565b60006020820190508181036000830152611b928161182d565b9050919050565b60006020820190508181036000830152611bb281611893565b9050919050565b60006020820190508181036000830152611bd281611913565b9050919050565b6000602082019050611bee6000830184611a40565b92915050565b600060c082019050611c096000830189611a40565b611c1660208301886115bf565b611c2360408301876115bf565b611c306060830186611a40565b611c3d6080830185611a40565b611c4a60a08301846116bf565b979650505050505050565b6000604051905081810181811067ffffffffffffffff82111715611c7c57611c7b611ecb565b5b8060405250919050565b600067ffffffffffffffff821115611ca157611ca0611ecb565b5b601f19601f8301169050602081019050919050565b6000819050602082019050919050565b6000819050602082019050919050565b600081519050919050565b600081519050919050565b600081519050919050565b6000602082019050919050565b6000602082019050919050565b600082825260208201905092915050565b600082825260208201905092915050565b600081905092915050565b600082825260208201905092915050565b600082825260208201905092915050565b6000611d6b82611d91565b9050919050565b60008115159050919050565b6000819050611d8c82611f0b565b919050565b600073ffffffffffffffffffffffffffffffffffffffff82169050919050565b6000819050919050565b6000611dc682611dcd565b9050919050565b6000611dd882611d91565b9050919050565b6000611dea82611d7e565b9050919050565b60005b83811015611e0f578082015181840152602081019050611df4565b83811115611e1e576000848401525b50505050565b6000611e2f82611db1565b91507fffffffffffffffffffffffffffffffffffffffffffffffffffffffffffffffff821415611e6257611e61611e6d565b5b600182019050919050565b7f4e487b7100000000000000000000000000000000000000000000000000000000600052601160045260246000fd5b7f4e487b7100000000000000000000000000000000000000000000000000000000600052602160045260246000fd5b7f4e487b7100000000000000000000000000000000000000000000000000000000600052604160045260246000fd5b6000601f19601f8301169050919050565b60058110611f1c57611f1b611e9c565b5b50565b611f2881611d60565b8114611f3357600080fd5b50565b611f3f81611d72565b8114611f4a57600080fd5b50565b60058110611f5a57600080fd5b50565b60078110611f6a57600080fd5b50565b611f7681611db1565b8114611f8157600080fd5b5056fea26469706673582212204083b8129949d5649ec343f4615ce8f25229fb0569b4286677bfd0a3f697c9f564736f6c63430008000033",
  "immutableReferences": {},
  "source": "// SPDX-License-Identifier: MIT\r\npragma solidity >=0.8.0 <0.9.0;\r\n\r\nimport \"./UserRegistry.sol\";\r\n\r\ncontract LoanMatching {\r\n    UserRegistry public userRegistry;\r\n    uint256 public applicationCounter;\r\n\r\n    struct LoanApplication {\r\n        uint256 id;\r\n        address farmer;\r\n        address bank;\r\n        uint256 amount;\r\n        uint256 insurancePolicyId;\r\n        LoanStatus status;\r\n    }\r\n\r\n    // Define a view struct\r\nstruct LoanApplicationView {\r\n    LoanApplication application;\r\n    string bankName;\r\n}\r\n\r\n    enum LoanStatus { Pending, Approved, Disbursed, Repaid, Rejected }\r\n\r\n    mapping(uint256 => LoanApplication) public applications;\r\n\r\n    event LoanApplied(uint256 indexed appId, address indexed farmer, address indexed bank);\r\n    event LoanStatusUpdated(uint256 indexed appId, LoanStatus newStatus);\r\n    event LoanRepaid(uint256 indexed appId, address indexed farmer, uint256 amount); // New Event\r\n\r\n    // --- OPTIMIZATION: Mapping from farmer address to their application IDs ---\r\n    mapping(address => uint256[]) public applicationIdsByFarmer;\r\n\r\n    constructor(address _registryAddress) {\r\n        userRegistry = UserRegistry(_registryAddress);\r\n    }\r\n\r\n    function applyForLoan(address _bank, uint256 _amount, uint256 _insurancePolicyId) public {\r\n        require(userRegistry.getUser(msg.sender).role == UserRegistry.UserRole.Farmer, \"Only farmers can apply.\");\r\n        require(userRegistry.getUser(_bank).role == UserRegistry.UserRole.Bank, \"Invalid bank address.\");\r\n        \r\n        applicationCounter++;\r\n        applications[applicationCounter] = LoanApplication(\r\n            applicationCounter, msg.sender, _bank, _amount, _insurancePolicyId, LoanStatus.Pending\r\n        );\r\n\r\n        // --- MODIFICATION: Add the new application ID to the farmer's list ---\r\n        applicationIdsByFarmer[msg.sender].push(applicationCounter);\r\n\r\n        emit LoanApplied(applicationCounter, msg.sender, _bank);\r\n    }\r\n\r\n    function updateLoanStatus(uint256 _appId, LoanStatus _newStatus) public {\r\n        LoanApplication storage app = applications[_appId];\r\n        require(app.bank == msg.sender, \"You are not the bank for this application.\");\r\n        \r\n        app.status = _newStatus;\r\n        emit LoanStatusUpdated(_appId, _newStatus);\r\n    }\r\n\r\n    // --- OPTIMIZATION: New function to get all application IDs for a farmer ---\r\n    function getApplicationIdsByFarmer(address _farmer) public view returns (uint256[] memory) {\r\n        return applicationIdsByFarmer[_farmer];\r\n    }\r\n\r\n\r\n    \r\n    function getApplicationsAndBankNamesByFarmer(address _farmer)\r\n    public\r\n    view\r\n    returns (LoanApplicationView[] memory)\r\n    {\r\n        uint256[] memory appIds = applicationIdsByFarmer[_farmer];\r\n        LoanApplicationView[] memory views = new LoanApplicationView[](appIds.length);\r\n\r\n        for (uint i = 0; i < appIds.length; i++) {\r\n            LoanApplication storage app = applications[appIds[i]];\r\n            views[i] = LoanApplicationView({\r\n                application: app,\r\n                bankName: userRegistry.getUser(app.bank).name\r\n            });\r\n        }\r\n        return views;\r\n    }\r\n\r\n     // --- NEW FUNCTION: Repay Loan ---\r\n    function repayLoan(uint256 _appId) public payable {\r\n        LoanApplication storage app = applications[_appId];\r\n        \r\n        // 1. Check if the caller is the farmer for this loan\r\n        require(app.farmer == msg.sender, \"Only the farmer of this loan can repay.\");\r\n        // 2. Check if the loan status is 'Disbursed'\r\n        require(app.status == LoanStatus.Approved, \"Loan must be in 'Approved' state to be repaid.\");\r\n        // 3. Check if the sent amount matches the loan amount\r\n        require(msg.value == app.amount, \"Incorrect repayment amount sent.\");\r\n\r\n        // Transfer the Ether to the bank\r\n        (bool sent, ) = payable(app.bank).call{value: msg.value}(\"\");\r\n        require(sent, \"Failed to send Ether to the bank.\");\r\n\r\n        // Update the loan status\r\n        app.status = LoanStatus.Repaid;\r\n        \r\n        // Emit events\r\n        emit LoanRepaid(_appId, msg.sender, msg.value);\r\n        emit LoanStatusUpdated(_appId, LoanStatus.Repaid);\r\n    }\r\n}",
  "sourcePath": "D:\\WEB\\Blockchain\\SupplyChain\\New folder\\contracts\\LoanMatching.sol",
  "compiler": {
    "name": "solc",
    "version": "0.8.0+commit.c7dfd78e.Emscripten.clang"
  },
  "schemaVersion": "3.4.16",
  "updatedAt": "2025-10-31T10:46:53.821Z",
  "networkType": "ethereum",
  "devdoc": {
    "kind": "dev",
    "methods": {},
    "version": 1
  },
  "userdoc": {
    "kind": "user",
    "methods": {},
    "version": 1
  }
}