{
  "contractName": "LoanMatching",
  "abi": [
    {
      "inputs": [
        {
          "internalType": "address",
          "name": "_registryAddress",
          "type": "address"
        }
      ],
      "stateMutability": "nonpayable",
      "type": "constructor"
    },
    {
      "anonymous": false,
      "inputs": [
        {
          "indexed": true,
          "internalType": "uint256",
          "name": "appId",
          "type": "uint256"
        },
        {
          "indexed": true,
          "internalType": "address",
          "name": "farmer",
          "type": "address"
        },
        {
          "indexed": true,
          "internalType": "address",
          "name": "bank",
          "type": "address"
        }
      ],
      "name": "LoanApplied",
      "type": "event"
    },
    {
      "anonymous": false,
      "inputs": [
        {
          "indexed": true,
          "internalType": "uint256",
          "name": "appId",
          "type": "uint256"
        },
        {
          "indexed": false,
          "internalType": "enum LoanMatching.LoanStatus",
          "name": "newStatus",
          "type": "uint8"
        }
      ],
      "name": "LoanStatusUpdated",
      "type": "event"
    },
    {
      "inputs": [],
      "name": "applicationCounter",
      "outputs": [
        {
          "internalType": "uint256",
          "name": "",
          "type": "uint256"
        }
      ],
      "stateMutability": "view",
      "type": "function",
      "constant": true
    },
    {
      "inputs": [
        {
          "internalType": "address",
          "name": "",
          "type": "address"
        },
        {
          "internalType": "uint256",
          "name": "",
          "type": "uint256"
        }
      ],
      "name": "applicationIdsByFarmer",
      "outputs": [
        {
          "internalType": "uint256",
          "name": "",
          "type": "uint256"
        }
      ],
      "stateMutability": "view",
      "type": "function",
      "constant": true
    },
    {
      "inputs": [
        {
          "internalType": "uint256",
          "name": "",
          "type": "uint256"
        }
      ],
      "name": "applications",
      "outputs": [
        {
          "internalType": "uint256",
          "name": "id",
          "type": "uint256"
        },
        {
          "internalType": "address",
          "name": "farmer",
          "type": "address"
        },
        {
          "internalType": "address",
          "name": "bank",
          "type": "address"
        },
        {
          "internalType": "uint256",
          "name": "amount",
          "type": "uint256"
        },
        {
          "internalType": "uint256",
          "name": "insurancePolicyId",
          "type": "uint256"
        },
        {
          "internalType": "enum LoanMatching.LoanStatus",
          "name": "status",
          "type": "uint8"
        }
      ],
      "stateMutability": "view",
      "type": "function",
      "constant": true
    },
    {
      "inputs": [],
      "name": "userRegistry",
      "outputs": [
        {
          "internalType": "contract UserRegistry",
          "name": "",
          "type": "address"
        }
      ],
      "stateMutability": "view",
      "type": "function",
      "constant": true
    },
    {
      "inputs": [
        {
          "internalType": "address",
          "name": "_bank",
          "type": "address"
        },
        {
          "internalType": "uint256",
          "name": "_amount",
          "type": "uint256"
        },
        {
          "internalType": "uint256",
          "name": "_insurancePolicyId",
          "type": "uint256"
        }
      ],
      "name": "applyForLoan",
      "outputs": [],
      "stateMutability": "nonpayable",
      "type": "function"
    },
    {
      "inputs": [
        {
          "internalType": "uint256",
          "name": "_appId",
          "type": "uint256"
        },
        {
          "internalType": "enum LoanMatching.LoanStatus",
          "name": "_newStatus",
          "type": "uint8"
        }
      ],
      "name": "updateLoanStatus",
      "outputs": [],
      "stateMutability": "nonpayable",
      "type": "function"
    },
    {
      "inputs": [
        {
          "internalType": "address",
          "name": "_farmer",
          "type": "address"
        }
      ],
      "name": "getApplicationIdsByFarmer",
      "outputs": [
        {
          "internalType": "uint256[]",
          "name": "",
          "type": "uint256[]"
        }
      ],
      "stateMutability": "view",
      "type": "function",
      "constant": true
    },
    {
      "inputs": [
        {
          "internalType": "address",
          "name": "_farmer",
          "type": "address"
        }
      ],
      "name": "getApplicationsAndBankNamesByFarmer",
      "outputs": [
        {
          "components": [
            {
              "components": [
                {
                  "internalType": "uint256",
                  "name": "id",
                  "type": "uint256"
                },
                {
                  "internalType": "address",
                  "name": "farmer",
                  "type": "address"
                },
                {
                  "internalType": "address",
                  "name": "bank",
                  "type": "address"
                },
                {
                  "internalType": "uint256",
                  "name": "amount",
                  "type": "uint256"
                },
                {
                  "internalType": "uint256",
                  "name": "insurancePolicyId",
                  "type": "uint256"
                },
                {
                  "internalType": "enum LoanMatching.LoanStatus",
                  "name": "status",
                  "type": "uint8"
                }
              ],
              "internalType": "struct LoanMatching.LoanApplication",
              "name": "application",
              "type": "tuple"
            },
            {
              "internalType": "string",
              "name": "bankName",
              "type": "string"
            }
          ],
          "internalType": "struct LoanMatching.LoanApplicationView[]",
          "name": "",
          "type": "tuple[]"
        }
      ],
      "stateMutability": "view",
      "type": "function",
      "constant": true
    }
  ],
  "bytecode": "0x60806040523480156200001157600080fd5b5060405162001ac838038062001ac8833981810160405281019062000037919062000095565b806000806101000a81548173ffffffffffffffffffffffffffffffffffffffff021916908373ffffffffffffffffffffffffffffffffffffffff160217905550506200010f565b6000815190506200008f81620000f5565b92915050565b600060208284031215620000a857600080fd5b6000620000b8848285016200007e565b91505092915050565b6000620000ce82620000d5565b9050919050565b600073ffffffffffffffffffffffffffffffffffffffff82169050919050565b6200010081620000c1565b81146200010c57600080fd5b50565b6119a9806200011f6000396000f3fe608060405234801561001057600080fd5b50600436106100885760003560e01c8063c937cf021161005b578063c937cf0214610127578063db144d0114610157578063dfefadff14610175578063e7c642a3146101aa57610088565b80634efe27201461008d5780635c7460d6146100a957806371dccb29146100c7578063a8a52d56146100f7575b600080fd5b6100a760048036038101906100a291906110aa565b6101c6565b005b6100b161071e565b6040516100be919061153d565b60405180910390f35b6100e160048036038101906100dc9190611045565b610742565b6040516100ee91906114f9565b60405180910390f35b610111600480360381019061010c9190611045565b610b61565b60405161011e919061151b565b60405180910390f35b610141600480360381019061013c919061106e565b610bf8565b60405161014e91906115d3565b60405180910390f35b61015f610c29565b60405161016c91906115d3565b60405180910390f35b61018f600480360381019061018a919061113a565b610c2f565b6040516101a1969594939291906115ee565b60405180910390f35b6101c460048036038101906101bf9190611163565b610cb8565b005b60016006811115610200577f4e487b7100000000000000000000000000000000000000000000000000000000600052602160045260246000fd5b60008054906101000a900473ffffffffffffffffffffffffffffffffffffffff1673ffffffffffffffffffffffffffffffffffffffff16636f77926b336040518263ffffffff1660e01b815260040161025991906114de565b60006040518083038186803b15801561027157600080fd5b505afa158015610285573d6000803e3d6000fd5b505050506040513d6000823e3d601f19601f820116820180604052508101906102ae91906110f9565b6040015160068111156102ea577f4e487b7100000000000000000000000000000000000000000000000000000000600052602160045260246000fd5b1461032a576040517f08c379a0000000000000000000000000000000000000000000000000000000008152600401610321906115b3565b60405180910390fd5b60046006811115610364577f4e487b7100000000000000000000000000000000000000000000000000000000600052602160045260246000fd5b60008054906101000a900473ffffffffffffffffffffffffffffffffffffffff1673ffffffffffffffffffffffffffffffffffffffff16636f77926b856040518263ffffffff1660e01b81526004016103bd91906114de565b60006040518083038186803b1580156103d557600080fd5b505afa1580156103e9573d6000803e3d6000fd5b505050506040513d6000823e3d601f19601f8201168201806040525081019061041291906110f9565b60400151600681111561044e577f4e487b7100000000000000000000000000000000000000000000000000000000600052602160045260246000fd5b1461048e576040517f08c379a000000000000000000000000000000000000000000000000000000000815260040161048590611573565b60405180910390fd5b600160008154809291906104a190611813565b91905055506040518060c0016040528060015481526020013373ffffffffffffffffffffffffffffffffffffffff1681526020018473ffffffffffffffffffffffffffffffffffffffff16815260200183815260200182815260200160006004811115610537577f4e487b7100000000000000000000000000000000000000000000000000000000600052602160045260246000fd5b8152506002600060015481526020019081526020016000206000820151816000015560208201518160010160006101000a81548173ffffffffffffffffffffffffffffffffffffffff021916908373ffffffffffffffffffffffffffffffffffffffff16021790555060408201518160020160006101000a81548173ffffffffffffffffffffffffffffffffffffffff021916908373ffffffffffffffffffffffffffffffffffffffff160217905550606082015181600301556080820151816004015560a08201518160050160006101000a81548160ff0219169083600481111561064c577f4e487b7100000000000000000000000000000000000000000000000000000000600052602160045260246000fd5b0217905550905050600360003373ffffffffffffffffffffffffffffffffffffffff1673ffffffffffffffffffffffffffffffffffffffff16815260200190815260200160002060015490806001815401808255809150506001900390600052602060002001600090919091909150558273ffffffffffffffffffffffffffffffffffffffff163373ffffffffffffffffffffffffffffffffffffffff166001547fc2477375cca122dc31426a9b1914d6fd23aab5f60809b9405e86dfa34784be6f60405160405180910390a4505050565b60008054906101000a900473ffffffffffffffffffffffffffffffffffffffff1681565b60606000600360008473ffffffffffffffffffffffffffffffffffffffff1673ffffffffffffffffffffffffffffffffffffffff1681526020019081526020016000208054806020026020016040519081016040528092919081815260200182805480156107cf57602002820191906000526020600020905b8154815260200190600101908083116107bb575b505050505090506000815167ffffffffffffffff811115610819577f4e487b7100000000000000000000000000000000000000000000000000000000600052604160045260246000fd5b60405190808252806020026020018201604052801561085257816020015b61083f610df0565b8152602001906001900390816108375790505b50905060005b8251811015610b56576000600260008584815181106108a0577f4e487b7100000000000000000000000000000000000000000000000000000000600052603260045260246000fd5b6020026020010151815260200190815260200160002090506040518060400160405280826040518060c0016040529081600082015481526020016001820160009054906101000a900473ffffffffffffffffffffffffffffffffffffffff1673ffffffffffffffffffffffffffffffffffffffff1673ffffffffffffffffffffffffffffffffffffffff1681526020016002820160009054906101000a900473ffffffffffffffffffffffffffffffffffffffff1673ffffffffffffffffffffffffffffffffffffffff1673ffffffffffffffffffffffffffffffffffffffff16815260200160038201548152602001600482015481526020016005820160009054906101000a900460ff1660048111156109e4577f4e487b7100000000000000000000000000000000000000000000000000000000600052602160045260246000fd5b6004811115610a1c577f4e487b7100000000000000000000000000000000000000000000000000000000600052602160045260246000fd5b81525050815260200160008054906101000a900473ffffffffffffffffffffffffffffffffffffffff1673ffffffffffffffffffffffffffffffffffffffff16636f77926b8460020160009054906101000a900473ffffffffffffffffffffffffffffffffffffffff166040518263ffffffff1660e01b8152600401610aa291906114de565b60006040518083038186803b158015610aba57600080fd5b505afa158015610ace573d6000803e3d6000fd5b505050506040513d6000823e3d601f19601f82011682018060405250810190610af791906110f9565b60200151815250838381518110610b37577f4e487b7100000000000000000000000000000000000000000000000000000000600052603260045260246000fd5b6020026020010181905250508080610b4e90611813565b915050610858565b508092505050919050565b6060600360008373ffffffffffffffffffffffffffffffffffffffff1673ffffffffffffffffffffffffffffffffffffffff168152602001908152602001600020805480602002602001604051908101604052809291908181526020018280548015610bec57602002820191906000526020600020905b815481526020019060010190808311610bd8575b50505050509050919050565b60036020528160005260406000208181548110610c1457600080fd5b90600052602060002001600091509150505481565b60015481565b60026020528060005260406000206000915090508060000154908060010160009054906101000a900473ffffffffffffffffffffffffffffffffffffffff16908060020160009054906101000a900473ffffffffffffffffffffffffffffffffffffffff16908060030154908060040154908060050160009054906101000a900460ff16905086565b60006002600084815260200190815260200160002090503373ffffffffffffffffffffffffffffffffffffffff168160020160009054906101000a900473ffffffffffffffffffffffffffffffffffffffff1673ffffffffffffffffffffffffffffffffffffffff1614610d61576040517f08c379a0000000000000000000000000000000000000000000000000000000008152600401610d5890611593565b60405180910390fd5b818160050160006101000a81548160ff02191690836004811115610dae577f4e487b7100000000000000000000000000000000000000000000000000000000600052602160045260246000fd5b0217905550827fca025541f3b98a26e6b88a58dde138008b18408e6643c0b90cfed597351fe2c883604051610de39190611558565b60405180910390a2505050565b6040518060400160405280610e03610e10565b8152602001606081525090565b6040518060c0016040528060008152602001600073ffffffffffffffffffffffffffffffffffffffff168152602001600073ffffffffffffffffffffffffffffffffffffffff168152602001600081526020016000815260200160006004811115610ea4577f4e487b7100000000000000000000000000000000000000000000000000000000600052602160045260246000fd5b81525090565b6000610ebd610eb884611680565b61164f565b905082815260208101848484011115610ed557600080fd5b610ee08482856117e0565b509392505050565b600081359050610ef78161190e565b92915050565b600081519050610f0c8161190e565b92915050565b600081519050610f2181611925565b92915050565b600081359050610f368161193c565b92915050565b600081519050610f4b8161194c565b92915050565b600082601f830112610f6257600080fd5b8151610f72848260208601610eaa565b91505092915050565b600060a08284031215610f8d57600080fd5b610f9760a061164f565b90506000610fa784828501610efd565b600083015250602082015167ffffffffffffffff811115610fc757600080fd5b610fd384828501610f51565b6020830152506040610fe784828501610f3c565b6040830152506060610ffb84828501610f12565b606083015250608061100f84828501611030565b60808301525092915050565b60008135905061102a8161195c565b92915050565b60008151905061103f8161195c565b92915050565b60006020828403121561105757600080fd5b600061106584828501610ee8565b91505092915050565b6000806040838503121561108157600080fd5b600061108f85828601610ee8565b92505060206110a08582860161101b565b9150509250929050565b6000806000606084860312156110bf57600080fd5b60006110cd86828701610ee8565b93505060206110de8682870161101b565b92505060406110ef8682870161101b565b9150509250925092565b60006020828403121561110b57600080fd5b600082015167ffffffffffffffff81111561112557600080fd5b61113184828501610f7b565b91505092915050565b60006020828403121561114c57600080fd5b600061115a8482850161101b565b91505092915050565b6000806040838503121561117657600080fd5b60006111848582860161101b565b925050602061119585828601610f27565b9150509250929050565b60006111ab8383611408565b905092915050565b60006111bf83836114c0565b60208301905092915050565b6111d48161174f565b82525050565b6111e38161174f565b82525050565b60006111f4826116d0565b6111fe818561170b565b935083602082028501611210856116b0565b8060005b8581101561124c578484038952815161122d858261119f565b9450611238836116f1565b925060208a01995050600181019050611214565b50829750879550505050505092915050565b6000611269826116db565b611273818561171c565b935061127e836116c0565b8060005b838110156112af57815161129688826111b3565b97506112a1836116fe565b925050600181019050611282565b5085935050505092915050565b6112c5816117aa565b82525050565b6112d4816117ce565b82525050565b6112e3816117ce565b82525050565b60006112f4826116e6565b6112fe818561172d565b935061130e8185602086016117e0565b611317816118e9565b840191505092915050565b600061132f60158361173e565b91507f496e76616c69642062616e6b20616464726573732e00000000000000000000006000830152602082019050919050565b600061136f602a8361173e565b91507f596f7520617265206e6f74207468652062616e6b20666f72207468697320617060008301527f706c69636174696f6e2e000000000000000000000000000000000000000000006020830152604082019050919050565b60006113d560178361173e565b91507f4f6e6c79206661726d6572732063616e206170706c792e0000000000000000006000830152602082019050919050565b600060e0830160008301516114206000860182611445565b50602083015184820360c086015261143882826112e9565b9150508091505092915050565b60c08201600082015161145b60008501826114c0565b50602082015161146e60208501826111cb565b50604082015161148160408501826111cb565b50606082015161149460608501826114c0565b5060808201516114a760808501826114c0565b5060a08201516114ba60a08501826112cb565b50505050565b6114c9816117a0565b82525050565b6114d8816117a0565b82525050565b60006020820190506114f360008301846111da565b92915050565b6000602082019050818103600083015261151381846111e9565b905092915050565b60006020820190508181036000830152611535818461125e565b905092915050565b600060208201905061155260008301846112bc565b92915050565b600060208201905061156d60008301846112da565b92915050565b6000602082019050818103600083015261158c81611322565b9050919050565b600060208201905081810360008301526115ac81611362565b9050919050565b600060208201905081810360008301526115cc816113c8565b9050919050565b60006020820190506115e860008301846114cf565b92915050565b600060c08201905061160360008301896114cf565b61161060208301886111da565b61161d60408301876111da565b61162a60608301866114cf565b61163760808301856114cf565b61164460a08301846112da565b979650505050505050565b6000604051905081810181811067ffffffffffffffff82111715611676576116756118ba565b5b8060405250919050565b600067ffffffffffffffff82111561169b5761169a6118ba565b5b601f19601f8301169050602081019050919050565b6000819050602082019050919050565b6000819050602082019050919050565b600081519050919050565b600081519050919050565b600081519050919050565b6000602082019050919050565b6000602082019050919050565b600082825260208201905092915050565b600082825260208201905092915050565b600082825260208201905092915050565b600082825260208201905092915050565b600061175a82611780565b9050919050565b60008115159050919050565b600081905061177b826118fa565b919050565b600073ffffffffffffffffffffffffffffffffffffffff82169050919050565b6000819050919050565b60006117b5826117bc565b9050919050565b60006117c782611780565b9050919050565b60006117d98261176d565b9050919050565b60005b838110156117fe5780820151818401526020810190506117e3565b8381111561180d576000848401525b50505050565b600061181e826117a0565b91507fffffffffffffffffffffffffffffffffffffffffffffffffffffffffffffffff8214156118515761185061185c565b5b600182019050919050565b7f4e487b7100000000000000000000000000000000000000000000000000000000600052601160045260246000fd5b7f4e487b7100000000000000000000000000000000000000000000000000000000600052602160045260246000fd5b7f4e487b7100000000000000000000000000000000000000000000000000000000600052604160045260246000fd5b6000601f19601f8301169050919050565b6005811061190b5761190a61188b565b5b50565b6119178161174f565b811461192257600080fd5b50565b61192e81611761565b811461193957600080fd5b50565b6005811061194957600080fd5b50565b6007811061195957600080fd5b50565b611965816117a0565b811461197057600080fd5b5056fea2646970667358221220a2e35ed94bb5823180f32b7d1eb261437ea666dc0adcee3692fff4dd0d90b01f64736f6c63430008000033",
  "immutableReferences": {},
  "source": "// SPDX-License-Identifier: MIT\r\npragma solidity >=0.8.0 <0.9.0;\r\n\r\nimport \"./UserRegistry.sol\";\r\n\r\ncontract LoanMatching {\r\n    UserRegistry public userRegistry;\r\n    uint256 public applicationCounter;\r\n\r\n    struct LoanApplication {\r\n        uint256 id;\r\n        address farmer;\r\n        address bank;\r\n        uint256 amount;\r\n        uint256 insurancePolicyId;\r\n        LoanStatus status;\r\n    }\r\n\r\n    // Define a view struct\r\nstruct LoanApplicationView {\r\n    LoanApplication application;\r\n    string bankName;\r\n}\r\n\r\n    enum LoanStatus { Pending, Approved, Disbursed, Repaid, Rejected }\r\n\r\n    mapping(uint256 => LoanApplication) public applications;\r\n\r\n    event LoanApplied(uint256 indexed appId, address indexed farmer, address indexed bank);\r\n    event LoanStatusUpdated(uint256 indexed appId, LoanStatus newStatus);\r\n\r\n    // --- OPTIMIZATION: Mapping from farmer address to their application IDs ---\r\n    mapping(address => uint256[]) public applicationIdsByFarmer;\r\n\r\n    constructor(address _registryAddress) {\r\n        userRegistry = UserRegistry(_registryAddress);\r\n    }\r\n\r\n    function applyForLoan(address _bank, uint256 _amount, uint256 _insurancePolicyId) public {\r\n        require(userRegistry.getUser(msg.sender).role == UserRegistry.UserRole.Farmer, \"Only farmers can apply.\");\r\n        require(userRegistry.getUser(_bank).role == UserRegistry.UserRole.Bank, \"Invalid bank address.\");\r\n        \r\n        applicationCounter++;\r\n        applications[applicationCounter] = LoanApplication(\r\n            applicationCounter, msg.sender, _bank, _amount, _insurancePolicyId, LoanStatus.Pending\r\n        );\r\n\r\n        // --- MODIFICATION: Add the new application ID to the farmer's list ---\r\n        applicationIdsByFarmer[msg.sender].push(applicationCounter);\r\n\r\n        emit LoanApplied(applicationCounter, msg.sender, _bank);\r\n    }\r\n\r\n    function updateLoanStatus(uint256 _appId, LoanStatus _newStatus) public {\r\n        LoanApplication storage app = applications[_appId];\r\n        require(app.bank == msg.sender, \"You are not the bank for this application.\");\r\n        \r\n        app.status = _newStatus;\r\n        emit LoanStatusUpdated(_appId, _newStatus);\r\n    }\r\n\r\n    // --- OPTIMIZATION: New function to get all application IDs for a farmer ---\r\n    function getApplicationIdsByFarmer(address _farmer) public view returns (uint256[] memory) {\r\n        return applicationIdsByFarmer[_farmer];\r\n    }\r\n\r\n\r\n    \r\n    function getApplicationsAndBankNamesByFarmer(address _farmer)\r\n    public\r\n    view\r\n    returns (LoanApplicationView[] memory)\r\n    {\r\n        uint256[] memory appIds = applicationIdsByFarmer[_farmer];\r\n        LoanApplicationView[] memory views = new LoanApplicationView[](appIds.length);\r\n\r\n        for (uint i = 0; i < appIds.length; i++) {\r\n            LoanApplication storage app = applications[appIds[i]];\r\n            views[i] = LoanApplicationView({\r\n                application: app,\r\n                bankName: userRegistry.getUser(app.bank).name\r\n            });\r\n        }\r\n        return views;\r\n    }\r\n}",
  "sourcePath": "D:\\VIT\\Fall 25-26\\Project-1\\Modified\\New folder\\contracts\\LoanMatching.sol",
  "compiler": {
    "name": "solc",
    "version": "0.8.0+commit.c7dfd78e.Emscripten.clang"
  },
  "schemaVersion": "3.4.16",
  "updatedAt": "2025-09-17T17:33:46.213Z",
  "networkType": "ethereum",
  "devdoc": {
    "kind": "dev",
    "methods": {},
    "version": 1
  },
  "userdoc": {
    "kind": "user",
    "methods": {},
    "version": 1
  }
}